:100000000C94CE060C9415070C9415070C94150748
:100010000C9415070C9415070C9415070C941507F0
:100020000C9415070C9415070C94752C0C94482D02
:100030000C94931E0C9415070C9415070C9415073B
:100040000C9415070C9415070C9415070C941507C0
:100050000C9415070C94141F0C9415070C94150799
:100060000C9415070C9415070C9415070C941507A0
:100070000C9415070C9415070C9415070C94150790
:100080000C9415070C9415070C9415070C94150780
:100090000C9415070C9415070C9415070C94150770
:1000A0000C9415070C9415070C94150729001400DF
:1000B0001A0008001500170000001C0018000C00B2
:1000C000120013002A002B0004001600070009008C
:1000D0000A0001420B000D000E000F003300340037
:1000E000E1001D001B000600190005000141110080
:1000F00010003600370038002800E0000000E20061
:10010000E300014101422C005000510052004F0019
:100110000000E50035001E001F0020002100220025
:100120000000230024002500260027004C000100C9
:100130004E004B004A004D002D0201002E002D0004
:100140002E022602270231003900AA00A900010070
:100150000100010001000100010001000100010097
:100160000100010000000100010001000100010088
:1001700001000100010001000000010035023A0009
:100180003B003C003D003E0000003F0040004100BD
:1001900042004300440001001E021F02200221020F
:1001A000220201002302240225022F003000310226
:1001B0000100CA5CC95CC55CC65CC25C0100010090
:1001C000010001002F0230020100010000000100C7
:1001D000C75CC85C010001000100010001000100D2
:1001E0000000005C44454255473A206469736162EF
:1001F0006C65642E0A0044454255473A20656E619D
:10020000626C65642E0A000A002530313662003ABD
:10021000200025303258000A722F632030313233EB
:100220003435363738394142434445460A00556E25
:1002300069636F646520696E707574206D6F6465A5
:100240002073657420746F3A2025750A00556E6915
:10025000636F646520696E707574206D6F646520CE
:10026000696E697420746F3A2025750A000A0025AA
:1002700030325820006B6579626F6172645F72651D
:10028000706F72743A20000A0025303258006B6596
:1002900079626F6172645F7365745F6C65643A2044
:1002A0000064656C5F6B65795F6269743A206361B5
:1002B0006E27742064656C3A20253032580A00613C
:1002C00064645F6B65795F6269743A2063616E276D
:1002D00074206164643A20253032580A00290A00EB
:1002E0002575002F002575005D280025640020007D
:1002F000256400200025640020002564007C002582
:10030000303258006D6F7573656B6579205B627470
:100310006E7C782079207620685D287265702F6168
:10032000636C293A205B006D6B5F776865656C5F75
:1003300074696D655F746F5F6D6178203D20256421
:100340000A006D6B5F776865656C5F6D61785F73E0
:1003500070656564203D2025640A006D6B5F7469DB
:100360006D655F746F5F6D6178203D2025640A00C4
:100370006D6B5F6D61785F7370656564203D2025EE
:10038000640A006D6B5F696E74657276616C203D06
:100390002025640A006D6B5F64656C6179203D20E7
:1003A00025640A006D6B5F776865656C5F74696DC5
:1003B000655F746F5F6D6178203D2025640A006D74
:1003C0006B5F776865656C5F6D61785F737065659D
:1003D00064203D2025640A006D6B5F74696D655F64
:1003E000746F5F6D6178203D2025640A006D6B5F3E
:1003F0006D61785F7370656564203D2025640A0037
:100400006D6B5F696E74657276616C203D2025644A
:100410000A006D6B5F64656C6179203D2025640A7C
:10042000000A00257500363A20776865656C5F74B0
:10043000696D655F746F5F6D61783A20000A002511
:100440007500353A20776865656C5F6D61785F731C
:10045000706565643A20000A00257500343A2074FE
:10046000696D655F746F5F6D61783A20000A0025E1
:100470007500333A206D61785F73706565643A206A
:10048000000A00257500323A20696E746572766143
:100490006C286D73293A20000A00257500313A2036
:1004A00064656C6179282A31306D73293A20000A1D
:1004B000092D2056616C756573202D0A004D3E0094
:1004C0004D25643E20003F007365742064656661BD
:1004D000756C740A00433E2000776865726520647D
:1004E000656C74613A20637572736F723D25642C7C
:1004F00020776865656C3D25640A536565206874DE
:1005000074703A2F2F656E2E77696B697065646918
:10051000612E6F72672F77696B692F4D6F757365E9
:100520005F6B6579730A000A092D204D6F7573653D
:100530006B6579202D0A4553432F713A097175690E
:10054000740A313A0964656C6179282A31306D7317
:10055000290A323A09696E74657276616C286D7386
:10056000290A333A096D61785F73706565640A34EE
:100570003A0974696D655F746F5F6D61780A353A29
:1005800009776865656C5F6D61785F737065656438
:100590000A363A09776865656C5F74696D655F74E2
:1005A0006F5F6D61780A0A703A097072696E742023
:1005B00076616C7565730A643A09736574206465C5
:1005C0006661756C74730A75703A092B310A646F31
:1005D000776E3A092D310A706775703A092B313000
:1005E0000A7067646F776E3A092D31300A0A7370AA
:1005F000656564203D2064656C7461202A206D610E
:10060000785F7370656564202A2028726570656163
:1006100074202F2074696D655F746F5F6D61782938
:100620000A003F004D3E2000433E20004C25640A56
:100630000074696D65725F72656164333228293AAE
:10064000202530346C580A006B65796D61705F63EA
:100650006F6E6669672E6E6B726F3A2025580A00BE
:100660006B6579626F6172645F69646C653A2025BD
:10067000580A006B6579626F6172645F70726F74A3
:100680006F636F6C3A2025580A00686F73745F6B54
:100690006579626F6172645F6C65647328293A20C2
:1006A00025580A000A092D20537461747573202D92
:1006B0000A004743433A20392E322E302041565209
:1006C0002D4C4942433A20322E302E302041565292
:1006D0005F415243483A20617672350A004F5054C8
:1006E000494F4E533A204C554641204D4F555345A6
:1006F0004B45592045585452414B455920434F4E84
:10070000534F4C4520434F4D4D414E44204E4B528C
:100710004F20343039360A004255494C443A2022A1
:10072000302E372E39372D31312D6765663436330B
:10073000652D646972747922202831343A34373A4D
:100740003539204465632020332032303139290A7D
:10075000005649443A20307836313331286A7029BE
:10076000205049443A20307843364146284172634C
:1007700068343029205645523A20307830303031B4
:100780000A00444553433A20514D4B206B65796232
:100790006F617264206669726D7761726520666F41
:1007A00072204172636834300A000A092D205665B0
:1007B0007273696F6E202D0A000A092D20436F6E37
:1007C000736F6C65202D0A4553432F713A0971757B
:1007D00069740A6D3A096D6F7573656B65790A0006
:1007E0000A092D204D61676963202D0A443A0944A6
:1007F00065627567204D65737361676520546F6727
:10080000676C650A583A094D6174726978204465CD
:10081000627567204D6F646520546F67676C652053
:100820002D2053686F77206B6579707265737365DF
:100830007320696E206D61747269782067726964D3
:100840000A4B3A094B6579626F61726420446562B4
:10085000756720546F67676C65202D2053686F772C
:10086000206B65797072657373207265706F727436
:100870000A4D3A094465627567204D6F75736520AE
:10088000546F67676C650A563A0956657273696FEB
:100890006E0A533A095374617475730A433A0941F5
:1008A0006374697661746520436F6E736F6C652045
:1008B0004D6F64650A46312D4631303A09537769E8
:1008C00074636820746F204C6179657220302D3913
:1008D0002028463130203D204C30290A302D393A2D
:1008E0000953776974636820746F204C617965726D
:1008F00020302D390A47524156453A0953776974D9
:10090000636820746F204C61796572203020286103
:100910006C7465726E617465290A423A094A756D94
:100920007020746F20426F6F746C6F616465720A1F
:100930004553433A094A756D7020746F20426F6FBA
:10094000746C6F616465722028616C7465726E618D
:100950007465290A453A095072696E7420454550FC
:10096000524F4D2053657474696E67730A42535039
:100970004143453A09436C65617220454550524FE9
:100980004D0A4E3A094E4B524F20546F67676C65C3
:100990000A000A002575002E6E6B726F3A20000A5D
:1009A000002575002E737761705F6261636B736CF5
:1009B0006173685F6261636B73706163653A2000A5
:1009C0000A002575002E737761705F677261766526
:1009D0005F6573633A20000A002575002E6E6F5F15
:1009E0006775693A20000A002575002E73776170DB
:1009F0005F72616C745F726775693A20000A002546
:100A000075002E737761705F6C616C745F6C6775D5
:100A1000693A20000A002575002E737761705F72B5
:100A200063746C5F726775693A20000A002575006F
:100A30002E737761705F6C63746C5F6C6775693A75
:100A400020000A002575002E636170736C6F636B64
:100A50005F746F5F636F6E74726F6C3A20000A0090
:100A60002575002E737761705F636F6E74726F6CA3
:100A70005F636170736C6F636B3A20000A0025300E
:100A80003258006B65796D61705F636F6E66696780
:100A90002E7261773A20000A002575002E6D6F7561
:100AA00073653A20000A002575002E6B6579626F28
:100AB0006172643A20000A002575002E6D6174721F
:100AC00069783A20000A002575002E656E61626C17
:100AD000653A20000A002530325800646562756767
:100AE0005F636F6E6669672E7261773A20000A0055
:100AF00025750064656661756C745F6C61796572FB
:100B00003A20003F004E4B524F3A206F66660A0073
:100B10004E4B524F3A206F6E0A000A6D6F75736527
:100B20003A206F66660A000A6D6F7573653A206F2A
:100B30006E0A000A6B6579626F6172643A206F66B3
:100B4000660A000A6B6579626F6172643A206F6EA3
:100B50000A000A6D61747269783A206F66660A004D
:100B60000A6D61747269783A206F6E0A000A6465D2
:100B70006275673A206F66660A000A646562756787
:100B80003A206F6E0A000A0A4A756D70696E672016
:100B9000746F20626F6F746C6F616465722E2E2E9D
:100BA0002000433E2000436C656172696E672045FA
:100BB0004550524F4D0A006565636F6E6669673A2E
:100BC0000A005B735D004B6579626F61726420732C
:100BD000746172742E0A005B575D005B535D005BAD
:100BE000525D005B445D005B435D00040330000028
:100BF000000E034100720063006800340030000002
:100C00000006036A00700000000403090409025B87
:100C100000030100A0FA090400000103010100091A
:100C200021110100012240000705810308000A0983
:100C3000040100010300000009211101000122C08C
:100C4000000705820320000A0904020002030000D5
:100C50000009211101000122220007058303200061
:100C60000107050303200001120110010000000824
:100C70003161AFC60100010203010631FF0974A111
:100C8000010975150026FF00952075088102097677
:100C9000150026FF00952075089102C00501090284
:100CA000A10185020901A100050919012905150005
:100CB00025019505750181029501750381010501E5
:100CC000093009311581257F95027508810609389B
:100CD0001581257F950175088106050C0A380215D6
:100CE00081257F950175088106C0C005010980A195
:100CF0000185031A81002A8300160100260300954E
:100D00000175108100C0050C0901A10185041A01BB
:100D1000002A9C02160100269C0295017510810094
:100D2000C005010906A1018505050719E029E71598
:100D30000025019508750181020507190029EF15A5
:100D400000250195F0750181020508190129059515
:100D50000575019102950175039101C00501090610
:100D6000A101050719E029E715002501950875017E
:100D700081029501750881010507190029FF1500F9
:100D800026FF0095067508810005081901290595BB
:100D90000575019102950175039101C011241FBED3
:100DA000CFEFDAE0DEBFCDBF04B603FE27C08091EF
:100DB0003D0290913E02A0913F02B09140028730E7
:100DC000904BA740B04BD1F410923D0210923E02DE
:100DD00010923F021092400214BE84B7877F84BFF6
:100DE0000FB6F894A89580916000886180936000A8
:100DF000109260000FBEE0E0F8E3099511E0A0E07A
:100E0000B1E0E8EDFFE502C005900D92AE33B10709
:100E1000D9F722E0AEE3B1E001C01D92AD33B207D5
:100E2000E1F70E94A4290C94752F0C940000FF9305
:100E3000EF93E0913E01F0913F01309709F0099561
:100E4000EF91FF910895FC018591803011F0EFDF63
:100E5000FBCF0895FF27E0E230E247FF0CC0419549
:100E600097FF09C0EDE26095709580959095611DA2
:100E7000711D811D911D27FF02C0219530E350E2B5
:100E8000AA27660F771F881F991FAA1FA41710F0A3
:100E9000A41B63955A95A9F7AA3008F0A95FA05D35
:100EA000AF93F395611571058105910541F7ED3219
:100EB00011F4EF93F395F21718F43F93F395FBCFEA
:100EC0008F91B5DFFA95E1F70895E991F991859150
:100ED000803021F0853219F0AADFF9CF089520E0A3
:100EE000E89455915532C1F3503311F468945591FB
:100EF0005A3348F4505390F3220F022E220F220F40
:100F0000200D250FF4CF0EF4219589919991533638
:100F100019F3533729F1533559F1BC018827992723
:100F2000E8945C3621F489919991689455915436EE
:100F300039F446EF7EF077FF0DC08FEF9FEF0AC0C8
:100F400055374AE039F0583540E121F0523642E059
:100F500009F00895FF93EF937DDFEF91FF91B7CFF5
:100F6000FF93EF93FC0181918030B9F360DFFBCFF9
:100F7000FF93EF9368DFF1CFDF93CF93CDB7DEB769
:100F80002596A3DFCF91DF910895CF93DF939C0146
:100F9000FB019A9581159F4160F5E901CC27D1703D
:100FA000D901AA27B270B90166277470A901442734
:100FB000587034FF10C080E1CD2B09F480E0AB2BDA
:100FC00009F08062672B09F08064452B09F0806886
:100FD000DF91CF91099481E0CD2B09F480E0AB2B18
:100FE00009F08260672B09F08460452B89F38860E3
:100FF000EFCFDF91CF910895CF93DF93EC01805E27
:101000009109089720F064E775E1209711F467EAE9
:1010100072E1CE010E94C5078C2FDF91CF910C9415
:10102000BC11CF93DF93EC010E946512CE01805E6C
:101030009109089720F06BE775E1209711F46EEAAB
:1010400072E1CE01DF91CF910C94C507CF93DF936E
:10105000D82FC92F0E94FC078D2F9C2FDF91CF9195
:101060000C94110881E0089581E008950C943408EF
:101070001F93CF93DF9300D000D00F92CDB7DEB790
:1010800049835A836B832091660189819A8121115A
:101090001BC06623A9F00E94721B182F682F89813C
:1010A0009A810E941B1B69817A81812F0F900F907A
:1010B0000F900F900F90DF91CF911F910C94F70933
:1010C0000E94491B182FEFCF0E94721B69817A8101
:1010D000EDCFFC01408151816281738184810C9448
:1010E00038080E94EA1C811102C00E94871D0E94DC
:1010F000670E0C94AC0C0C94AF0C282F2F7041F0A1
:10110000822F90E02A3010F44D96089506970895A6
:1011100087E290E0089508950C948B0881E008958B
:101120000C948E08CF93C82F0E948C088C2FCF91DF
:101130000C94900808950E9498150E949A082FEF29
:1011400084E39CE0215080409040E1F700C0000023
:1011500087E797E790930108809300080C94381F65
:101160000F931F93CF93DF938C010E946908EC01CA
:10117000B8010E943608882301F1B801CE010E940F
:10118000040F8823D1F0B801CE010E94A30F882359
:10119000A1F0F8018281882309F4D7C0C130FCE5B1
:1011A000DF0789F0CE3D8CE5D807F9F0C115ECE5F5
:1011B000DE0709F0E1C00E949B0880E0DF91CF913B
:1011C0001F910F9108959091EF01892F8E7F90FFCD
:1011D00081608093EF0180FF05C086EF91E00E945F
:1011E0002307EBCF84EE91E0FACF0E94871DE5CF75
:1011F000FE01E350FC4580912E028160E331F10550
:1012000090F4E958F04D0C94192FCA5FDC45C930B1
:10121000D10508F0DFC0C657D04DFE010C94192F40
:1012200080912E02826080932E02D4C080912E0283
:101230008460F9CF80912E028860F5CF80912F02D3
:10124000816080932F02C6C080912F028260F9CF07
:1012500080912E028061E7CF80912E028062E3CFE1
:1012600080912E028064DFCF0E94981580912E021B
:101270008068D9CF80912E028C60D5CF80912F02CB
:101280008360DFCF80912E028E7FCDCF80912E02A2
:101290008D7FC9CF80912E028B7FC5CF80912E028A
:1012A000877FC1CF80912F028E7FCBCF80912F027D
:1012B0008D7FC7CF80912E028F7EB5CF80912E0279
:1012C0008F7DB1CF80912E028F7BADCF0E9498157C
:1012D00080912E028F77A7CF80912E02837FA3CF9C
:1012E00080912F028C7FADCF80912E0282FB9927B7
:1012F00090F921E0922790FB82F990FB83F993CF3C
:1013000080912F02982F909591708E7F892B90FB62
:1013100081F997CF0E94981590912E02892F97FB03
:1013200087F9805880CF81E00E94891D53C080E0FA
:10133000FBCF85E31CC080914001811104C089E28C
:101340000E94F11B16C085E3FBCFC631DC4509F5D1
:101350000E940F1CF8019281992369F38A7A91E027
:1013600009F490E0909340018111E3CF89E20E945B
:10137000EA1B0E94611C21CFC6318CE5D80741F3DE
:10138000CE01C731ECE5DE0758F482509C45449706
:1013900058F0C801DF91CF911F910F910C94320842
:1013A0008A5F9C450997A8F70E94EA1C811102C038
:1013B0000E94871D0E94FD1C90932F0280932E0295
:1013C000C631FCE5DF0708F020CFC2308CE5D80736
:1013D00008F00ECF80912E0290912F020E940B1DDB
:1013E0000E949815EACE90E080E008950895972F26
:1013F00070E02DE0929F600D711D1124FB0194E3BC
:10140000899FE00DF11D1124EE0FFF1FE455FF4FE2
:10141000859194910895FC01EE0FFF1FE95FFD4F48
:10142000859194910895CF93DF930E94F7090E94CC
:10143000D00BEC01811520E5920708F0A3C08115BF
:1014400030E4930708F012C1803E910508F079C09E
:10145000803C910508F0FEC0883A910580F4853AF9
:10146000910508F0ECC08130910509F47BC0049728
:10147000813A910508F476C0D0E0C0E073C08F3B9C
:101480009105D1F3883A910509F445C1893A91054E
:1014900009F444C18A3A910509F443C18B3A910594
:1014A00009F442C18C3A910509F441C18B3B910585
:1014B00009F440C18C3B910509F43FC18D3A910577
:1014C00009F43EC1803B910509F43DC18E3A910576
:1014D00009F43CC18F3A910509F43BC1813B910568
:1014E00009F43AC1823B910509F439C1833B910566
:1014F00009F438C1843B910509F437C1853B910556
:1015000009F436C1863B910509F435C1873B910545
:1015100009F434C1883B910509F433C1893B910535
:1015200009F432C18D3B910509F431C18E3B91051F
:1015300009F430C18A3B910509F42FC1C0E0D4E41D
:1015400011C0811540E2940788F48F3F910509F09E
:1015500048F4883E910530F0805F9109D06540974E
:1015600008F08ACFCE01DF91CF910895C11580E3B5
:10157000D80708F475C0CE019927D3FD74C0EC01DB
:10158000D06CF0CFC11595E5D90760F5C11524E5FC
:10159000D20708F09CC0C11533E5D30778F4C11514
:1015A00042E5D40708F082C0C11581E5D80708F4E8
:1015B00060C0DC2FCC27C16FD06AD4CFCE0183703E
:1015C000992721E030E002C0220F331F8A95E2F70D
:1015D000C695C69590E2C99FE0011124C22BD32B7A
:1015E000DA68C0CFC1152AE5D207B0F4C11539E5D4
:1015F000D30708F07CC0C11546E5D40708F46CC0D9
:10160000CE0198558F3F910511F008F035CFDC2FB2
:10161000CC27C06FD06AA6CFCE01905681159042DC
:1016200008F02ACF8D2F8F710E94680C90E0982FC0
:10163000882788279F719C012C2BE90156C0853A89
:10164000910509F462C0863A910509F061C0C2E8CB
:10165000D0E488CF805C91090E940B0AEC0182CF14
:10166000CE019F70F9CFEC01D86C7CCFDF70D06ACF
:1016700079CFCE0174E0969587957A95E1F78370DE
:101680002C2F26952695237040E2249F900111244B
:10169000382B8C2F8370C1E0D0E002C0CC0FDD1F4F
:1016A0008A95E2F7C22BD32BDC685CCFCE01837026
:1016B000992721E030E002C0220F331F8A95E2F71C
:1016C000C695C69580E2C89FE0011124EBCFDC2FC0
:1016D000CC27C46FD06A46CF8C2F0E94680CC82FCD
:1016E000D0E0DC2FCC27CC27DF71D0623BCF8C2F12
:1016F0008F700E94680C34E0D695C7953A95E1F753
:10170000CF70DC2FC82FD0692DCFC1E8D0E42ACF0D
:10171000C3E8D0E427CFC2EED4E424CFC9EED4E4AA
:1017200021CFCAEED4E41ECFC5EBD4E41BCFC6EB69
:10173000D4E418CFC3EBD4E415CFC4EBD4E412CF78
:10174000C7EBD4E40FCFCCECD4E40CCFCDECD4E495
:1017500009CFC3E8D5E406CFCAE8D5E403CFC2E990
:10176000D5E400CFC4E9D5E4FDCEC1E2D6E4FACE9B
:10177000C3E2D6E4F7CEC4E2D6E4F4CEC5E2D6E4C2
:10178000F1CEC6E2D6E4EECEC7E2D6E4EBCECFE6AB
:10179000D4E4E8CEC0E7D4E4E5CECAE2D6E4E2CEB3
:1017A000803E910599F1C8F48133910509F476C022
:1017B00048F48932910509F46AC08A32910509F426
:1017C00074C0089589339105D1F082389105B9F03C
:1017D0008533910509F454C00895843E910599F12B
:1017E00038F4823E9105F9F0833E910509F10895A0
:1017F000863E910599F1873E9105B9F108952091B2
:101800002E022370A1F080EE90E0089520912E0228
:1018100020FD52C030912F0230FF09C024FF4FC07D
:1018200090E080E004C020912E0222FDF7CF0895C1
:1018300020912E0222FD46C030912F0230FDE3CFD1
:1018400024FFF5CFEDCF20912F0221FFF0CF809123
:101850002E0284FDE5CF87EE90E0089520912E02C0
:1018600023FFE5CF24FDDCCFF6CF20912E0223FD10
:101870002CC030912F0231FFE3CF84EE90E0089529
:1018800020912E0225FFD3CF89E290E00895209188
:101890002E0225FFCCCF85E390E0089520912E0203
:1018A00026FFC5CF8AE290E0089520912E0226FF00
:1018B000BECF81E390E0089589E390E0089583EE40
:1018C00090E0089582EE90E0089586EE90E008950D
:1018D00090912E0292FF06C0282F28712830F9F42B
:1018E000877F846093FF06C0282F28712831F1F488
:1018F000877E846120912F0220FF06C0382F387127
:101900003830D9F4877F816021FF06C0282F2871E5
:101910002831D1F4877E816194FD877E0895282F38
:1019200024712430F9F68B7F8860DCCF282F247156
:10193000243101F78B7E8861DDCF382F3171313052
:1019400019F78E7F8860E0CF282F2171213121F790
:101950008E7E8861E1CF08950C94AB0C08950C94B1
:10196000AE0CE82FF0E0EE0FFF1FEF5BFE4F808123
:1019700091810895CF92DF92EF92FF920F931F9380
:10198000CF93DF9387E192E00E94230781E4E82E62
:1019900081E0F82ED0E0C0E092E1C92E92E0D92E8D
:1019A00009E012E0DF93CF93DF92CF920E94BC0751
:1019B0008FE092E00E942307F701819191917F01CE
:1019C0000E94DD1C9F938F931F930F930E94BC076F
:1019D00087E092E00E94230721968DB79EB7089674
:1019E0000FB6F8949EBF0FBE8DBFC430D105D1F69F
:1019F000DF91CF911F910F91FF90EF90DF90CF90EB
:101A00000895CF93DF93A3E1B1E040E251E0C1E05C
:101A1000D0E08D91E82FE295EF70F0E061A18F703A
:101A20009E0101C0220F8A95EAF7922F9095962386
:101A300091A382A1822B82A34A175B0751F7A0E2F0
:101A4000B1E044E251E0C1E0D0E08D91E82FE295B1
:101A5000EF70F0E061A18F709E0101C0220F8A95A6
:101A6000EAF7922F9095962391A382A1822B82A3CD
:101A70004A175B0751F710924A01109249011092E0
:101A800042011092410110924C0110924B011092B0
:101A900044011092430110924E0110924D01109298
:101AA0004601109245011092500110924F01109280
:101AB00048011092470184E00E94180EDF91CF91F7
:101AC0000C9471083F924F925F926F927F928F9227
:101AD0009F92AF92BF92CF92DF92EF92FF920F93BD
:101AE0001F93CF93DF9300D000D0CDB7DEB733E1A3
:101AF000A32E31E0B32E90E080E01B8261E070E025
:101B000041E5442E41E0542ED5012D915D01E22F97
:101B1000E295EF70F0E031A12F704B0101C0880C0D
:101B20002A95EAF7232F282921A322A1B82DB095C1
:101B3000BC832B2322A320EA2A95F1F78B01082EE0
:101B400002C0000F111F0A94E2F7380160947094EC
:101B5000A9E4B1E0BA83A98320E2E22E21E0F22ECB
:101B6000312CA981BA812D913D91BA83A983D701E6
:101B7000DD907D014D2D42954F7050E0DA01909639
:101B80004C9150E0BD2DBF70DB2EDA0102C0B5953F
:101B9000A795DA94E2F749815A8142505109A0FD94
:101BA00043C06901C02AD12ADA011196DC92CE9293
:101BB0004D915C912417350711F03324339429811A
:101BC0003A814216530669F621A13C81322331A3A2
:101BD00022A1822A82A2AB81A329AB8301968D30F8
:101BE000910509F091CF2A2F44E061E471E089E486
:101BF00091E00E94190E0E947B088B810F900F903C
:101C00000F900F90DF91CF911F910F91FF90EF9068
:101C1000DF90CF90BF90AF909F908F907F906F900C
:101C20005F904F903F9008956901C620D720BCCFA8
:101C30000895FF920F931F93CF93DF93F82E092FF0
:101C4000162FD72FC42F222349F081E08093530110
:101C50000E94C31E909352018093510180915301C1
:101C60008823A1F080915101909152010E94EF1EB2
:101C7000069760F0EF2DF02FA12FBD2F90E080E0B0
:101C8000D0E08C179D0744F010925301DF91CF9163
:101C90001F910F91FF900895219131912D933D93C4
:101CA0000196EFCFCF93DF93EC01FB0197FF0BC0C1
:101CB0008281882341F00E94A50ECE019F770E9469
:101CC000E70E0E94D00E81E0DF91CF9108958CE065
:101CD00090E00E94332F482F50E070E060E0409386
:101CE0002302509324026093250270932602909160
:101CF000EF0190FF0CC01F928F938DE492E09F93B1
:101D00008F930E94BC070F900F900F900F90089533
:101D1000609123028CE090E00C94412F8093230289
:101D20000E94880E8091EF0180FF0EC080912302F7
:101D30001F928F938EE292E09F938F930E94BC0735
:101D40000F900F900F900F9008950E940F1C80939A
:101D500027020E94231C809123028230A9F030F4D4
:101D600081110DC082EE0E94BC1102C0843099F036
:101D70008FE39CE90197F1F700C00000089588E126
:101D800093E00E942608F4CF82EE0E94BC1187E502
:101D90000E949412EDCF86EE0E94941288E1F8CF53
:101DA00080912302823019F030F481110AC082EE52
:101DB0000E94651202C0843041F0809127020C9489
:101DC000201C8CE20E949412F8CF88E2FBCF0F9384
:101DD0001F93CF93DF938C01CCE0D0E0C8010C2E91
:101DE00002C0969587950A94E2F78F700E947D084D
:101DF0000E9494122497CC3F8FEFD80779F7DF9198
:101E0000CF911F910F9108950F931F93CF93DF935D
:101E1000EC018B01FB018281882371F0C33EFCE55C
:101E2000DF0701F188F4C13EECE5DE07C9F081E08F
:101E3000C23EFCE5DF0789F0B801CE01DF91CF910A
:101E40001F910F910C94520EC43E8CE5D80761F09F
:101E500084E0C53EECE5DE0779F70E948E0EECCFFC
:101E600080E0FBCF82E0F9CF83E0F7CF0F931F93A1
:101E7000CF93DF93C62FD42F022FFC0182818823BA
:101E8000C9F0609356010E94C31E90935501809340
:101E9000540180E28C0F883008F050C0C77081E098
:101EA00001C0880FCA95EAF7DF91CF911F910F917A
:101EB0000C94A71210915601161335C0809154014D
:101EC000909155010E94EF1E883C910560F5C0E29B
:101ED000CD0F1D17B9F080E2810F883040F41770E4
:101EE00081E001C0880F1A95EAF70E94AE12C8304F
:101EF00048F481E09D2F977001C0880F9A95EAF70A
:101F00000E94A712802F0E949412C830B8F4D77094
:101F100081E001C0880FDA95EAF7DF91CF911F9138
:101F20000F910C94AE1280E28C0F883038F4C77099
:101F300081E001C0880FCA95EAF7EFCFDF91CF911A
:101F40001F910F9108959C01CB01233F4CE534076D
:101F500069F190F4283DFCE53F0721F1293D4CE56E
:101F6000340781F1273D3C45B1F0FC018281882393
:101F700061F1109256010895253FFCE53F07D1F02D
:101F8000263F4CE53407D1F0243F3C4571F727E26A
:101F900045EE64EE03C026E241EE61EE0E94360F8C
:101FA00080E0089527E245EE65EEF8CF26E241EEA7
:101FB00060EEF4CF26E241EE62EEF0CF27E245EE8E
:101FC00066EEECCF28E241E0EFCF81E008959093F8
:101FD0005C0180935B010895E0915B01F0915C01ED
:101FE000309721F00190F081E02D099480E0089570
:101FF000EF92FF920F931F93CF93DF93EC01E09149
:102000005B01F0915C01309709F446C080911201A8
:10201000882341F080912E0287FF04C08881898344
:1020200085E088830280F381E02DCE0109958091BF
:10203000EF0182FF31C080FF04C085E792E00E947B
:10204000230710E000E08FE6E82E82E0F82E809172
:10205000EF0180FF0EC0FE01E00FF11F80811F9293
:102060008F93FF92EF920E94BC070F900F900F90FA
:102070000F900F5F1F4F0830110549F78091EF0156
:1020800080FF0AC08DE692E0DF91CF911F910F9102
:10209000FF90EF900C942307DF91CF911F910F9148
:1020A000FF90EF900895DC01E0915B01F0915C01FD
:1020B000309739F082E08C930480F581E02DCD01DA
:1020C000099408952091590130915A012817390730
:1020D00071F090935A0180935901E0915B01F09166
:1020E0005C01309721F00680F781E02D0994089576
:1020F00020915701309158012817390771F09093BA
:10210000580180935701E0915B01F0915C01309799
:1021100021F00084F185E02D0994089585B7806849
:1021200085BF85B7806885BF0895089508950C948C
:10213000951008950C9499100E948E100E9496108C
:102140000C94971081E008950E94BA1E0E94010D20
:102150000E94491F0C949A10CF93C82F8091EF01D1
:1021600082FF1EC080FF1CC08EE892E00E94230701
:102170008091EF0180FF14C01F92CF9389E892E015
:102180009F938F930E94BC078091EF010F900F9057
:102190000F900F9080FF04C087E892E00E94230711
:1021A0008C2FCF910C9492085F926F927F928F92B6
:1021B0009F92AF92BF92CF92DF92EF92FF920F93D6
:1021C0001F93CF93DF9300D000D00F92CDB7DEB72F
:1021D0000E94620D0E94A210882309F479C09EE536
:1021E000A92E91E0B92E10E000E088248394912C70
:1021F000502E802F0E94B10C7C01F501C190D1902E
:102200005F01C816D90609F45DC08091EF0181FD18
:102210000E94BA0C90E080E0CE24DF243401082E26
:1022200002C0660C771C0A94E2F79601262137213A
:10223000232B09F442C089835A82E620F72081E0EB
:10224000EF2809F480E08B830E94C31E8160782F01
:102250009D838C8349815A816B818D810E948E116F
:10226000000F111FF801E25AFE4F8081918168260C
:102270007926718260820E946A210E94EC0F9091FF
:102280005D018917B1F10E94EC0F80935D010F9001
:102290000F900F900F900F90DF91CF911F910F91A2
:1022A000FF90EF90DF90CF90BF90AF909F908F9076
:1022B0007F906F905F900C94AC1001968D309105DB
:1022C00009F0ACCF0F5F1F4F0430110509F090CF1C
:1022D0008FEF89838A831B820E94C31E8160782FBF
:1022E0009D838C8349815A816B818D810E948E11DF
:1022F000C2CF0F900F900F900F900F90DF91CF9162
:102300001F910F91FF90EF90DF90CF90BF90AF9013
:102310009F908F907F906F905F900895CF93DF9301
:10232000CDB7DEB72B970FB6F894DEBF0FBECDBF8B
:102330004F83588769877A878B871E8285E0FE01E5
:102340003796DE01119601900D928A95E1F7498149
:102350005A816B817C818D819E812B960FB6F8947A
:10236000DEBF0FBECDBFDF91CF910C943118FC01C1
:10237000808191810C94B41BCF93C82F882309F4DA
:10238000A2C08CEF8C0F813A58F48C2F0E94E52567
:10239000811199C08C2F0E94EA1BCF910C94611C73
:1023A00080E28C0F883048F4C77081E001C0880F4C
:1023B000CA95EAF70E94121CF0CF8BE58C0F833090
:1023C00068F481E890E0C53A31F083E890E0C63ADD
:1023D00011F482E890E0CF910C94621088E58C0FA4
:1023E000873108F068C082EE90E0C83A09F460C016
:1023F00089EE90E0C93A09F45BC08AEE90E0CA3AEF
:1024000009F456C085EB90E0CB3A09F451C086EB55
:1024100090E0CC3A09F44CC083EB90E0CB3B09F45C
:1024200047C084EB90E0CC3B09F442C087EB90E0DE
:10243000CD3AF1F18CEC90E0C03BD1F18DEC90E025
:10244000CE3AB1F183E891E0CF3A91F18AE891E098
:10245000C13B71F182E991E0C23B51F184E991E025
:10246000C33B31F181E292E0C43B11F183E292E09F
:10247000C53BF1F084E292E0C63BD1F085E292E008
:10248000C73BB1F086E292E0C83B91F087E292E070
:10249000C93B71F08FE690E0CD3B51F080E790E0D2
:1024A000CE3B31F090E080E0CA3B11F48AE292E04A
:1024B000CF910C947810C03F30F08C2F0E94F61F03
:1024C000CF910C94DD20CF910895882361F19CEF8A
:1024D000980F913A20F40E94F11B0C94611C90E239
:1024E000980F983050F4877091E001C0990F8A9549
:1024F000EAF7892F0E94181CF0CF9BE5980F9330C4
:1025000020F490E080E00C94621098E5980F9731E9
:1025100020F490E080E00C947810803F20F00E943E
:102520005E200C94DD200895CF93C82F0E94BC112B
:10253000C93349F42FEF87EE93E02150804090405B
:10254000E1F700C000008C2FCF910C946512882316
:1025500021F00E94121C0C94611C0895882321F024
:102560000E94181C0C94611C0895AF92BF92CF92E8
:10257000DF92EF92FF920F931F93CF93DF9300D0E0
:1025800000D00F92CDB7DEB76C016D837983FC016B
:10259000058102950F70128111110E94341C0E9456
:1025A000081CE82E882371F01123B1F08D81805E24
:1025B000883090F082E00E94AC1C0E94081C91E0E0
:1025C000E82EE926A980A2949FE0A922B12CF5016A
:1025D000ED56F04D0C94192FE12CF4CF09810F70BA
:1025E000F981F07F11F00295007F1123B1F00023F3
:1025F00061F08D81805E883018F02D81211109C035
:10260000802F0E94121C0E94611C8D810E94BC11AF
:1026100015C0802F0E94261CF6CF8D810E94651266
:10262000002361F08D81805E883018F04D8141116A
:1026300033C0802F0E94181C0E94611C58E0A51A0C
:10264000B10864E0A616B10420F40E94EC0F0E94C9
:102650009208EE2009F40EC20E94041C80FD0AC2FA
:10266000F60112820E94FE1B0E940B1AC6010E94F4
:102670004A150E94FE1B0F900F900F900F900F9025
:10268000DF91CF911F910F91FF90EF90DF90CF904E
:10269000BF90AF900C943C1A802F0E942C1CCCCF82
:1026A00059815F70F52E6981607F603219F0F29474
:1026B00080EFF8227D81772369F0713049F1112391
:1026C00091F1002351F1F601858180FF9ECF8F703B
:1026D000858323C0112381F0011106C00E94481C8C
:1026E0008F290E94A712AACF0130C1F70E94481C6F
:1026F0008F290E944E1CA2CF011106C00E94571CB8
:102700008F2D0E94AE129ACF013009F497CFF6CFE9
:10271000112329F0063008F091CF8F2DE2CF05303C
:1027200008F08CCFEDCF002359F3FD81F93349F444
:102730002FEF47EE53E0215040405040E1F700C0FA
:1027400000008D810E94651279CF898186958695DA
:10275000837069F0813009F071CF8D819981937018
:10276000111102C090E080E00E94781067CF8D8147
:1027700099819370111102C090E080E00E94621074
:102780005DCF112311F16D81653F99F0663FB9F07E
:10279000643F49F4809128029091290281609093CE
:1027A0002902809328028D810E94F61F0E94DD205D
:1027B00045CF80912802909129028260F0CF8091CC
:1027C0002802909129028460EACF7D81753F89F0CB
:1027D000763FA9F0743F49F4809128029091290234
:1027E0008E7F90932902809328028D810E945E2023
:1027F000DDCF80912802909129028D7FF2CF8091C8
:102800002802909129028B7FECCF8981837009F097
:1028100059C0111113CF4D81429546954770440F11
:10282000440F8D818F7090E0B0E0A0E0042E04C0D2
:10283000880F991FAA1FBB1F0A94D2F7ED8100E0F1
:1028400010E09801E4FF0FC00FE010E020E030E05E
:1028500004C0000F111F221F331F4A95D2F70095A5
:10286000109520953095F981F695F695F370FD83D6
:10287000B901A801482B592B6A2B7B2B49835A831A
:102880006B837C83F23081F0F330A9F0F13029F0D2
:10289000CB01BA010E948119D1CE69817A818B81E5
:1028A0009C810E945919CACE69817A818B819C8151
:1028B0000E94A919C3CE69817A818B819C810E9473
:1028C0005719BCCE8695112311F089818170882318
:1028D00009F4B4CE4D81429546954770440F440F9C
:1028E0008D818F7090E0B0E0A0E0042E04C0880FCE
:1028F000991FAA1FBB1F0A94D2F75D8100E010E068
:10290000980154FF0FC00FE010E020E030E004C059
:10291000000F111F221F331F4A95D2F70095109503
:102920002095309569816695669563706D83B901D0
:10293000A801482B592B6A2B7B2B49835A836B8325
:102940007C835D8169817A818B819C81523051F0D9
:10295000533059F0513019F00E94CA1A6FCE0E94BC
:10296000A21A6CCE0E94F21A69CE0E94D51966CEC8
:1029700069816F706983112329F0862F0E940B1AD9
:102980008D81AFCE8D810E94AE1289810E943C1A4A
:1029900055CE7D81723FA1F160F4703FE1F0713F4F
:1029A00041F1112309F445C001112FCE89818F71A6
:1029B00024C08D81833F49F1843F99F7112379F138
:1029C00099819F719983892F0E940B1A63E08981F5
:1029D0000E94971C33CE112341F0053008F02ECE13
:1029E00089818F710E94711A29CE063008F026CE97
:1029F000F7CF89818F71112349F20E940B1A1ECEE5
:102A000089818F711123C9F3C1CF112329F08981E5
:102A10008F710E94E61912CE0E94E1190FCE81E05B
:102A20000E94AC1C023008F409CE82E00E94AC1C6B
:102A300005CE002361F0ED81E93309F082CEFFEF8E
:102A400027EE43E0F15020404040E1F778CE898105
:102A50008F719CCF49814F706D81C6010E94F3092F
:102A60000E94CB18EBCD49814F706D81C6010E9449
:102A7000F609E4CD0F900F900F900F900F90DF911B
:102A8000CF911F910F91FF90EF90DF90CF90BF906B
:102A9000AF9008950F931F93CF93DF93EC018B8139
:102AA0009C81892B29F08881998189238F3F29F482
:102AB000DF91CF911F910F910895CE010E94B00830
:102AC0008823B1F3688179818A810E94C01B8C01BF
:102AD0000E941A1B0E945619B801CE01DF91CF91B6
:102AE0001F910F910C94B512882321F00E94261C8F
:102AF0000C94611C0895882321F00E942C1C0C94D6
:102B0000611C08950E94341C0E94451C0E94611C97
:102B10000E9401220E94DD2090E080E00E9462106D
:102B200090E080E00C9478100E94F81B0C948215C1
:102B30000E94231C0C949415282F892F82958F7046
:102B4000903C80F48A30B0F4843020F4823090F4E9
:102B500080E008958630E1F781E0283E88F0213F4B
:102B6000B9F70EC08C3011F08F3091F793FB8827A6
:102B700080F9089581E0203F39F018F4283E40F7AD
:102B80000895243F29F7FCCF08950E94B41B0C94AC
:102B90009C15CF93DF9300D000D00F92CDB7DEB756
:102BA0000F900F900F900F900F90DF91CF9108959D
:102BB000CF93DF9300D000D000D0CDB7DEB72696FC
:102BC0000FB6F894DEBF0FBECDBFDF91CF91089551
:102BD0001F93CF93DF93E091670116E08091680126
:102BE0008E1304C0DF91CF911F910895CE2FD0E0B6
:102BF0001E9FF0011124E759FE4F408151816281EF
:102C00007381848195810E94D815FE013196E77009
:102C1000E5CF4091990150919A0160919B0170918B
:102C20009C0180919D0190919E010C94D8151F9359
:102C3000CF93DF9380919E01807FC1F480919B01AF
:102C40008823A1F080916701C0916801609199018A
:102C500070919A0140919C0150919D01D62FD723EC
:102C6000DA01A095B09516E0C81304C0DF91CF91AA
:102C70001F91089590E04115510511F0DF3F31F4A7
:102C800001968770F1CF2A0F3B1F17C0189FF001E4
:102C9000199FF00D1124E759FE4F21812713F0CF22
:102CA00020812613EDCF22812111EACF23813481A7
:102CB0002417350740F3241B350B283C310500F75A
:102CC00020919E012F70206120939E0126E0289F75
:102CD000F001299FF00D1124E259FE4F80818F7081
:102CE0008061808389E991E00E944A15DF91CF914C
:102CF0001F910C94E8159F92AF92BF92CF92DF92F2
:102D0000EF92FF920F931F93CF93DF93CDB7DEB770
:102D10002B970FB6F894DEBF0FBECDBF8C0185E0B8
:102D2000F801DE01179601900D928A95E1F7D8011E
:102D30004C9111965C9111971296EC90129780919C
:102D40009C0190919D01009709F46CC1209199011B
:102D500030919A01632F62236F3F09F463C1139688
:102D6000CD90DC9090909B01992009F4FAC0C81690
:102D7000D90608F43FC0F601E81BF90BCF01FF2488
:102D8000F394883C910508F0F12C89E9A82E81E0A4
:102D9000B82E80919E01982F907FFF2009F4B9C032
:102DA000911180C0FE2C35132AC0241328C0E110D5
:102DB00026C08F70806180939E010E940916C50114
:102DC0000E944A1580919E01D80115968C938F2DF3
:102DD0002B960FB6F894DEBF0FBECDBFDF91CF911B
:102DE0001F910F91FF90EF90DF90CF90BF90AF9029
:102DF0009F900895809590958C0D9D1DC0CFCD28F6
:102E000029F0842F85238F3F09F028C180E0B82F57
:102E1000B170DB2EE09167012091680136E080FD02
:102E20001CC0EE20A1F280919E01816080939E01E2
:102E3000F12CCDCF8E2F90E03E9FF0011124E75969
:102E4000FE4F6181651306C06081641303C0628117
:102E50006E11E7CFFC013196E770E213EBCF4F83A1
:102E600058878F8198850E94B41B292F22952F7037
:102E7000903260F0225F2F70223078F49F7051F012
:102E8000F8019581907F31F4D12C0AC09F7011F028
:102E90008823D1F3805E8830B8F3C8010E944A15B8
:102EA000FD2C95CF351306C0241304C0D801EE20A5
:102EB00009F47CC04F8358878F8198850E94C5157F
:102EC000882319F1EE2009F180919E01803270F083
:102ED0002091990130919A013A8329831B82DD82E6
:102EE000CC828E83CE0101960E944A1586E0F801BD
:102EF000A9E9B1E001900D928A95E1F70E941716B9
:102F00000E940916FF24F39462CFC8010E944A155B
:102F1000F9CF911113C07C2DDB86CA866E2D8B856F
:102F20000E94C91589E991E00E944A1586E0F501E1
:102F300011928A95E9F70E94091649CF3513BACF45
:102F40002413B8CFE110B6CFD80115968C93C801E1
:102F50000E944A1586E0F50111928A95E9F7F92C4D
:102F600036CFC816D90680F1B601681B790BCB01A4
:102F7000F12C883C910508F046C0FE2CEE2029F289
:102F8000351330C024132EC080919E0180FD21C0D6
:102F9000982F907FF1F0D80115968C931597903F5C
:102FA00039F0982F907F905F8F70892B15968C93B6
:102FB000C8010E944A1586E0F801A9E9B1E0019034
:102FC0000D928A95E1F7B7CF809590958C0D9D1D58
:102FD000CFCF86E0F801A9E9B1E001900D928A9582
:102FE000E1F7F5CE4F8358878F8198850E94C515EC
:102FF00081117CCF80919E01816080939E01C801E8
:103000000E944A15E4CE7C2DDB86CA866E2D8B8508
:103010000E94C91586E0E9E9F1E0DF011D928A9579
:10302000E9F789CFEE2009F470CF4F8358878F815D
:1030300098850E94C515F82E882309F466CF86E08E
:10304000F801A9E9B1E001900D928A95E1F789E9CB
:1030500091E00E94B7110E9417166DCF81E08E2576
:10306000D6CE1F93CF93DF93CDB7DEB72C970FB695
:10307000F894DEBF0FBECDBF4F83588769877A872C
:103080008B879C87CE0107960E947B16882369F068
:103090008A859B85892B39F04F815885842F85231C
:1030A0008F3F09F071C016E05FC086E0FE013796E1
:1030B000DE01119601900D928A95E1F78A859B8534
:1030C000892B89F388859F8189238F3F61F3209124
:1030D000680130E0C9010196877099274091670126
:1030E0004817190671F40E94981510926801109201
:1030F000670186E0E9E9F1E0DF011D928A95E9F7D1
:10310000D2CF96E0929FD001939FB00D1124A75982
:10311000BE4FFE01319601900D929A95E1F7809392
:1031200068010E94E815BFCF819FC0011124875913
:103130009E4F0E947B168823E9F0E09167011E9F55
:10314000F0011124E759FE4F408151816281738162
:10315000848195810E94D8158091670190E0019645
:10316000877099278093670180916701909168012A
:103170008913DACF2C960FB6F894DEBF0FBECDBF01
:10318000DF91CF911F91089569857A858B859C8504
:103190000E94D81588CFEF92FF920F931F93CF9381
:1031A000DF938C01892B89F0F12CEE24E394E80164
:1031B0002196F8018491843709F457C0A0F4823035
:1031C00009F43EC048F48130D1F0DF91CF911F91D6
:1031D0000F91FF90EF9008959CEF980F9037A8F70C
:1031E0000E94BC110AC0853709F44CC09CE7980FB7
:1031F000903758F78F770E9465128E0116C00E5FC8
:103200001F4FFE01849190E2980F983060F4877010
:10321000FE2D01C0FF0F8A95EAF78F2F0E94371C01
:103220000E94611C02C00E94BC118F2D815008F4C5
:10323000BECFEFE9FFE03197F1F700C00000F6CF15
:103240000E5F1F4FFE01849190E2980F983050F46A
:103250008770FE2D01C0FF0F8A95EAF78F2F0E941D
:103260003D1CDECF0E946512E0CF0E5F1F4FFE01B6
:10327000C491C150D0F28FE99FE00197F1F700C0EF
:103280000000F7CF0E5F1F4FFE01F490CECF0895E0
:103290000C9447190E9448196093C6017093C701A6
:1032A0008093C8019093C9010C94821508950C94E1
:1032B0004A19CF93DF9300D000D0CDB7DEB7698332
:1032C0007A838B839C838091C6019091C701A091E2
:1032D000C801B091C90129813A814B815C81282BB9
:1032E000392B4A2B5B2B29833A834B835C83CA019E
:1032F000B9010F900F900F900F90DF91CF910C9428
:103300004A19CF93DF9300D000D0CDB7DEB76983E1
:103310007A838B839C838091C6019091C701A09191
:10332000C801B091C90129813A814B815C81282370
:1033300039234A235B2329833A834B835C83CA0165
:10334000B9010F900F900F900F90DF91CF910C94D7
:103350004A19CF93DF9300D000D0CDB7DEB7698391
:103360007A838B839C838091C6019091C701A09141
:10337000C801B091C90129813A814B815C8128271C
:1033800039274A275B2729833A834B835C83CA0109
:10339000B9010F900F900F900F90DF91CF910C9487
:1033A0004A190C9447190C94D1190E94D3196093AF
:1033B000C2017093C3018093C4019093C5010C9422
:1033C000821560E070E0CB010C94D5190F931F9328
:1033D000CF93DF9300D000D0CDB7DEB741E050E00F
:1033E00060E070E08A019B0104C0000F111F221FE2
:1033F000331F8A95D2F709831A832B833C83C90133
:10340000B8010F900F900F900F90DF91CF911F9107
:103410000F910C94D5190F931F93CF93DF9300D086
:1034200000D0CDB7DEB741E050E060E070E004C00E
:10343000440F551F661F771F8A95D2F78091C201EE
:103440009091C301A091C401B091C5018A019B0173
:10345000082B192B2A2B3B2B09831A832B833C83A4
:10346000C901B8010F900F900F900F90DF91CF918D
:103470001F910F910C94D5190F931F93CF93DF9346
:1034800000D000D0CDB7DEB741E050E060E070E0A2
:1034900004C0440F551F661F771F8A95D2F74095C9
:1034A0005095609570958091C2019091C301A09153
:1034B000C401B091C5018A019B01082319232A2365
:1034C0003B2309831A832B833C83C901B8010F90E6
:1034D0000F900F900F90DF91CF911F910F910C944F
:1034E000D5190F931F93CF93DF9300D000D0CDB7A2
:1034F000DEB741E050E060E070E004C0440F551FCB
:10350000661F771F8A95D2F78091C2019091C301FF
:10351000A091C401B091C5018A019B010827192718
:103520002A273B2709831A832B833C83C901B801CF
:103530000F900F900F900F90DF91CF911F910F91EF
:103540000C94D519CF93DF9300D000D0CDB7DEB760
:1035500069837A838B839C838091C2019091C3019C
:10356000A091C401B091C50129813A814B815C8150
:10357000282B392B4A2B5B2B29833A834B835C8383
:10358000CA01B9010F900F900F900F90DF91CF916A
:103590000C94D519CF93DF9300D000D0CDB7DEB710
:1035A00069837A838B839C838091C2019091C3014C
:1035B000A091C401B091C50129813A814B815C8100
:1035C000282339234A235B2329833A834B835C8353
:1035D000CA01B9010F900F900F900F90DF91CF911A
:1035E0000C94D519CF93DF9300D000D0CDB7DEB7C0
:1035F00069837A838B839C838091C2019091C301FC
:10360000A091C401B091C50129813A814B815C81AF
:10361000282739274A275B2729833A834B835C83F2
:10362000CA01B9010F900F900F900F90DF91CF91C9
:103630000C94D5190895E82F2DE0929FE00D1124E8
:103640008E2F877041E001C0440F8A95EAF7E69516
:10365000E695E69585E0E89FF0011124E156FE4FDE
:1036600030E020E070E05191DF011197CB01022E94
:1036700002C0969587950A94E2F781708195852717
:10368000842385278C932F5F3F4F2530310559F7D1
:103690000895E82F2DE0929FE00D11249E2F977042
:1036A000E695E695E69585E0E89FF0011124E15660
:1036B000FE4F50E040E080E0219130E0092E02C052
:1036C000369527950A94E2F721703327042E01C01E
:1036D000220F0A94EAF7822B4F5F5F4F4530510566
:1036E00059F70895BF92CF92DF92EF92FF920F9316
:1036F0001F93CF93DF938C01C090C201D090C30180
:10370000E090C401F090C5018091C6019091C7017D
:10371000A091C801B091C901C82AD92AEA2AFB2A76
:10372000CFE1D0E0BC2ED701C6010C2E04C0B69567
:10373000A795979587950A94D2F780FD0EC021979B
:1037400088F7B12C8B2DDF91CF911F910F91FF90B6
:10375000EF90DF90CF90BF900895B8018C2F0E941A
:10376000130A019761F3EECFCF93DF93D82FC92FC0
:103770000E94721B6D2F7C2FDF91CF910C94130A46
:103780001F93CF93DF93162FD72F90916601992324
:1037900039F0862F972FDF91CF911F910C94B41B96
:1037A000882391F0862F972F0E94721BC82F682FB5
:1037B000812F9D2F0E941B1B612F7D2F8C2FDF914E
:1037C000CF911F910C94130A862F972F0E94491BAB
:1037D000C82FF2CF682F80910001909101010C94C5
:1037E000161E682F80910001909101010C94211EFA
:1037F00080910001909101010C942C1E8091CA01CE
:1038000085958595859508958091CA01877008955D
:103810009091CA01977081E009F480E00895809149
:10382000EE0108959091EE01982B9093EE0108958A
:10383000982F90958091EE0189238093EE01089551
:103840008093EE0108951092EE0108959091ED019C
:10385000982B9093ED010895982F90958091ED010C
:1038600089238093ED0108951092ED0108959091C0
:10387000EC01982B9093EC010895982F90958091EE
:10388000EC0189238093EC0108951092EC010895D6
:103890008091CB01089508950C944B1C9091CB011D
:1038A000981721F08093CB010C944C1C08958091C3
:1038B000CB01882329F01092CB0180E00C944C1CA2
:1038C0000895E0910001F09101018091EE01808363
:1038D000E0910001F091010180819091ED01892B2F
:1038E0008083E0910001F091010180819091EC01D1
:1038F000892B80839091CB01992381F0E091000185
:10390000F09101018081892B808380910001909149
:1039100001010E948E1D81110E94571C809100019F
:10392000909101010C94F80F08950C94941C98E068
:10393000899F90011124622B6093CA010E940B1A87
:103940008091CA018595859585950C94951C10925A
:10395000CA0180E00C94951C9091CA01809589233E
:103960008093CA01282F277071F4282F082E000C8D
:10397000330B9217130639F08595859585950E942E
:103980003C1A0C94A71C089590933F0180933E012C
:103990000895829594E0899F900111242C7C86954E
:1039A00086958373282B30E0C901880F991F8A7A86
:1039B000359527952575822B0895CF93DF93D92FC1
:1039C0000E94C91CC82F8D2F0E94C91C9C2FDF91FB
:1039D000CF91089590E080E00E943B2F9C0181E010
:1039E0002C3E3E4F09F080E0089582E090E00C9478
:1039F000332F83E090E00C94332FCF9384E090E05A
:103A00000E94332FC82F81E290E00E94332F982F1D
:103A10008C2FCF910895CF93682FC92F84E090E029
:103A20000E94412F6C2F81E290E0CF910C94412FA6
:103A3000AB01BC018FE090E00C94532FAB01BC01B3
:103A400083E190E00C94532F60E070E0CB010C9484
:103A50001E1D60E070E0CB010E94181D0C94241D17
:103A60006CEE7EEF90E080E00E945F2F60E082E0ED
:103A700090E00E94412F60E083E090E00E94412F9F
:103A80001092C6011092C7011092C8011092C9018C
:103A900060E084E090E00E94412F60E081E290E0ED
:103AA0000E94412F60E085E090E00E94412F60E09D
:103AB00086E090E00E94412F6FEF87E090E00E9447
:103AC000412F40E050E0BA0188E090E00E94532F7F
:103AD00060E08DE090E00E94412F40E050E0BA01AC
:103AE00088E190E00E94532F60E087E190E00E941F
:103AF000412F40E050E0BA018CE190E00E94532F4A
:103B000060E080E290E00E94412F0C94291D0C940B
:103B1000301D682F8EE090E00C94412FFC0132960E
:103B200080911201882321F080912E029EE187FF6F
:103B300096E080E0915008F4089521912223D1F37A
:103B40008F5FF8CF9C01FC0132968FEF90E041919E
:103B5000461751F08F3F19F4411101C0892F9F5F23
:103B60009630A9F78F3F09F40895280F311D87FD7E
:103B70003A95F901628308959C01FC013296285F11
:103B80003F4F8191861303C0DF0111971C92E2170A
:103B9000F307B9F70895E62FE695E695E695603FB9
:103BA00070F4E80FF92FF11D677021E030E001C0DB
:103BB000220F6A95EAF78281822B82830895809191
:103BC000EF0180FF0CC01F926F938FEB92E09F93E9
:103BD0008F930E94BC070F900F900F900F90089545
:103BE000E62FE695E695E695603F78F4E80FF92F25
:103BF000F11D677081E090E001C0880F6A95EAF7D7
:103C0000809592818923828308958091EF0180FFBE
:103C10000CC01F926F9381EA92E09F938F930E9452
:103C2000BC070F900F900F900F90089520911201F4
:103C3000222329F020912E0227FD0C94CB1D0C94F9
:103C4000A21D20911201222329F020912E0227FD8E
:103C50000C94F01D0C94BC1DFC0132968091120155
:103C6000882351F080912E0287FF06C08EE1DF018C
:103C70001D928A95E9F7089586E0F9CF0895089591
:103C80000C943F1E0E94401E80913402843049F102
:103C90001092F00188E190E020E40FB6F894A89526
:103CA000809360000FBE2093600080E00E94920825
:103CB0000E94401E83B7817F846083BF83B7816089
:103CC00083BF7894889583B78E7F83BF0FB6F894AF
:103CD000A8958091600088618093600010926000D8
:103CE0000FBE08950895CF930E943E1E0E94620D5C
:103CF0000E94721EC0E08C2F0E94B10C892B31F4FF
:103D0000CF5FC430C1F780E0CF91089581E0FCCF50
:103D100008950C94881E0E9498150E94EC0F0E9432
:103D200092080C94891E1F921FB61F9211248F9324
:103D30009F93AF93BF938091F001811113C0809145
:103D40002A0290912B02A0912C02B0912D02419653
:103D5000A11DB11D80932A0290932B02A0932C02E7
:103D6000B0932D02BF91AF919F918F911F901FBE75
:103D70001F90189582E084BD93E095BD9AEF97BDA2
:103D800080936E0008952FB7F89480912A02909145
:103D90002B02A0912C02B0912D022FBF0895CF933A
:103DA000DF9300D000D0CDB7DEB78FB7F894209165
:103DB0002A0230912B0240912C0250912D0229832E
:103DC0003A834B835C838FBF69817A818B819C812D
:103DD0000F900F900F900F90DF91CF910895CF9299
:103DE000DF92EF92FF929C014FB7F89480912A02E4
:103DF00090912B02A0912C02B0912D024FBF6C012B
:103E00007D01EE24FF24A90170E060E0C416D50610
:103E1000E606F70638F0821B930BFF90EF90DF90D9
:103E2000CF9008950197F7CF78941F921FB61F92F5
:103E300011248F939F93AF93BF9380912A02909107
:103E40002B02A0912C02B0912D020196A11DB11D53
:103E500080932A0290932B02A0932C02B0932D0200
:103E6000BF91AF919F918F911F901FBE1F9018958A
:103E700087E797E7909301088093000888E19AE02C
:103E80000FB6F894A895809360000FBE90936000E1
:103E9000FFCFCF93DF9300D000D0CDB7DEB70E9425
:103EA000EA1C811102C00E94871D0E94F51C8093AC
:103EB000EF010E94FD1C90932F0280932E020E941E
:103EC000F91C282F30E050E040E029833A834B83EF
:103ED0005C83CA01B9010F900F900F900F90DF9192
:103EE000CF910C9457198091F40180FF12C060911A
:103EF000050185E0689FB00111247595679575955A
:103F0000679560387105A8F561157105A1F1862FD7
:103F1000089581FF09C06091050185E0689FB001A7
:103F2000112475956795EDCF6091050182FD0AC05A
:103F30008091F3018823D1F09091040160910501F3
:103F4000891728F085E0689FB0011124DACF869F99
:103F5000B001112485E0869F9001879F300D1124C8
:103F6000692F70E0C9010E94052FCBCF65E070E09A
:103F7000CECF8FE7089581E008958091F40180FF0E
:103F80000CC06091030170E0759567957595679514
:103F90006115710549F1862F089581FF06C0609172
:103FA000030170E075956795F3CF6091030182FD81
:103FB0000BC09091F3019923A1F0609102018091CF
:103FC0000301961738F0682F70E06038710500F330
:103FD0008FE70895899FC001112470E00E94052F8A
:103FE000F4CF61E070E0D7CF81E00895803F31F4F5
:103FF0000E94731F81958093F8010895813F19F401
:104000000E94731FF8CF823F31F40E94731F819585
:104010008093F7010895833F19F40E94731FF8CF2E
:10402000893F29F40E94BD1F8093F90108958A3FBA
:1040300021F40E94BD1F8195F7CF8B3F31F40E9480
:10404000BD1F81958093FA0108958C3F19F40E9459
:10405000BD1FF8CF843F31F48091F60181608093D9
:10406000F6010895853F21F48091F6018260F7CF33
:10407000863F21F48091F6018460F1CF873F21F4DF
:104080008091F6018860EBCF883F21F48091F601A2
:104090008061E5CF8D3F31F48091F40181608093A0
:1040A000F40108958E3F21F48091F4018260F7CFEE
:1040B0008F3FB9F78091F4018460F1CF9091F701BF
:1040C000803F41F48091F80187FD1092F801992317
:1040D00071F00895813F29F48091F8011816ACF32E
:1040E000F6CF823F81F497FFF2CF1092F7018091D3
:1040F000F8019091F901892B9091FA01892B49F7E8
:104100001092F3010895833F19F4191674F3DFCF69
:10411000893F39F48091F9011816CCF61092F90113
:10412000D6CF8A3F29F48091F90187FFD0CFF6CF0F
:104130008B3F39F48091FA0187FFC9CF1092FA01C1
:10414000C6CF8C3F29F48091FA011816BCF3BFCF7B
:10415000843F31F48091F6018E7F8093F601B7CFD2
:10416000853F21F48091F6018D7FF7CF863F21F4C2
:104170008091F6018B7FF1CF873F21F48091F6018A
:10418000877FEBCF883F21F48091F6018F7EE5CFCA
:104190008D3F31F48091F4018E7F8093F40197CFAD
:1041A0008E3F21F48091F4018D7FF7CF8F3F09F08E
:1041B0008ECF8091F4018B7FF0CF8091EF0183FF50
:1041C0007EC084E093E00E9423078091F6011F9255
:1041D0008F938FEF92E09F938F930E94BC078DEF98
:1041E00092E00E9423078091F701282F082E000CEF
:1041F000330B3F938F938AEF92E09F938F930E94AC
:10420000BC0788EF92E00E9423078091F801282FD5
:10421000082E000C330B3F938F9385EF92E09F9312
:104220008F930E94BC0783EF92E00E942307809146
:10423000F901282F082E000C330B3F938F9380EF4A
:1042400092E09F938F930E94BC078EEE92E00E94B3
:1042500023078091FA01282F082E000C330B3F937F
:104260008F938BEE92E09F938F930E94BC0788EE12
:1042700092E00E9423078091F3011F928F9385EEB5
:1042800092E09F938F930E94BC0783EE92E00E947E
:1042900023078091F4011F928F9380EE92E09F9309
:1042A0008F930E94BC078DED92E00E9423078DB78B
:1042B0009EB74C960FB6F8949EBF0FBE8DBF85EF8C
:1042C00091E00E9453100E94C31E9093F2018093CC
:1042D000F10108951F93CF93DF938091F1019091A5
:1042E000F2010E94EF1EAC018091F30120910601C2
:1042F00030E0811106C0209107019AE0299F9001CA
:1043000011244217530778F02091F701C091F8016A
:104310001091F901D091FA01211109C09C2F912B24
:104320009D2B09F06AC0DF91CF911F9108958F3FB7
:1043300019F08F5F8093F301121624F40E94731F0B
:104340008093F7018091F70187FF05C00E94731FDA
:1043500081958093F7011C1624F40E94731F8093AB
:10436000F8018091F80187FF05C00E94731F8195B5
:104370008093F8013091F7013323A1F02091F801E7
:10438000222381F045EB3403C0011124992369F104
:104390009093F70145EB240390011124332349F155
:1043A0003093F801111624F40E94BD1F8093F90187
:1043B0008091F90187FF05C00E94BD1F8195809300
:1043C000F9011D1624F40E94BD1F8093FA0180910B
:1043D000FA0187FF05C00E94BD1F81958093FA01F5
:1043E000DF91CF911F910C94DD2081E08093F70144
:1043F000D1CF81E08093F801D5CF8F3F09F099CFDD
:10440000AACF86E0E5EFF1E0DF011D928A95E9F79A
:104410001092F3011092F401089587E295E00E9452
:1044200023071F9281E08F931F9285E08F9389ED80
:1044300094E09F938F930E94BC070F900F900F9072
:104440000F900F900F900895843009F45DC040F4F0
:10445000823061F1833009F440C0813041F0089529
:10446000853009F468C0863009F47CC008958091D5
:104470000701482F460F5527551F4F3F510594F40C
:10448000680F60930701809107011F928F9382E16B
:1044900094E09F938F930E94BC070F900F900F9012
:1044A0000F9008958FEF80930701EDCF8091060163
:1044B000482F460F5527551F4F3F510554F4680F9D
:1044C00060930601809106011F928F9380E094E033
:1044D000E0CF8FEF80930601F5CF80910501482F43
:1044E000460F5527551F4F3F510554F4680F6093F1
:1044F0000501809105011F928F938DEE93E0C9CF46
:104500008FEF80930501F5CF80910401482F460F6E
:104510005527551F4F3F510554F4680F6093040110
:10452000809104011F928F9388ED93E0B2CF8FEFBB
:1045300080930401F5CF80910301482F460F552742
:10454000551F4F3F510554F4680F6093030180914C
:1045500003011F928F938FEB93E09BCF8FEF80939C
:104560000301F5CF80910201482F460F5527551FB3
:104570004F3F510554F4680F60930201809102018E
:104580001F928F9384EA93E084CF8FEF8093020190
:10459000F5CF843009F44AC038F4823029F18330F1
:1045A000A1F1813041F00895853009F450C0863082
:1045B00009F45EC0089580910701681790F4861B86
:1045C00080930701809107011F928F9385E993E003
:1045D0009F938F930E94BC070F900F900F900F90A6
:1045E000089510920701EECF80910601681750F4EC
:1045F000861B80930601809106011F928F9383E8AA
:1046000093E0E6CF10920601F6CF8091050168177E
:1046100050F4861B80930501809105011F928F93B2
:1046200080E793E0D5CF10920501F6CF8091040189
:10463000681750F4861B80930401809104011F9237
:104640008F938BE593E0C4CF10920401F6CF809155
:104650000301681750F4861B8093030180910301C6
:104660001F928F9382E493E0B3CF10920301F6CFB1
:1046700080910201681750F4861B8093020180919B
:1046800002011F928F9387E293E0A2CF1092020162
:10469000F6CFCF93DF9300D000D0CDB7DEB78983BC
:1046A0001F928F938CE296E09F938F930E94BC079A
:1046B00081E090E0A0E0B0E09C01AD01098004C081
:1046C000220F331F441F551F0A94D2F729833A83C0
:1046D0004B835C83CA01B9010E9457190F900F9058
:1046E0000F900F900F900F900F900F90DF91CF9140
:1046F0000C949815CF93DF93EBEFE80FEF3308F0AE
:104700004FC2F0E0ED55F04D0C94192F87EB9BE074
:104710000E94230783EF9AE00E9423070E94F91C5E
:104720001F928F9380EF9AE09F938F930E94BC0714
:104730008EEE9AE00E9423070E94F51CC82F8BED95
:104740009AE00E9423071F92CF9386ED9AE09F93F1
:104750008F930E94BC0784ED9AE00E9423078AECA5
:104760009AE00E9423078C2F81701F928F9387EC11
:104770009AE09F938F930E94BC0785EC9AE00E9479
:1047800023078BEB9AE00E942307C1FB882780F95F
:104790001F928F9388EB9AE09F938F930E94BC07A0
:1047A00086EB9AE00E9423078AEA9AE00E94230798
:1047B000C2FB882780F91F928F9387EA9AE09F9324
:1047C0008F930E94BC0785EA9AE00E9423078CE938
:1047D0009AE00E942307C3FBCC27C0F91F92CF9316
:1047E00089E99AE09F938F930E94BC0787E99AE03A
:1047F0000E9423070E94FD1CEC0183E89AE00E94BE
:104800002307DF93CF938EE79AE09F938F930E94C5
:10481000BC078CE79AE00E94230783E69AE00E9497
:1048200023078C2F81701F928F9380E69AE09F93CD
:104830008F930E94BC078DB79EB780960FB6F894F1
:104840009EBF0FBE8DBF8EE59AE00E94230787E4CE
:104850009AE00E942307C1FB882780F91F928F935B
:1048600084E49AE09F938F930E94BC0782E49AE0CD
:104870000E94230780E39AE00E9423078D2F817016
:104880001F928F938DE29AE09F938F930E94BC07B3
:104890008BE29AE00E94230789E19AE00E942307B5
:1048A000D695D1701F92DF9386E19AE09F938F9304
:1048B0000E94BC0784E19AE00E94230782E09AE00C
:1048C0000E942307C2FB882780F91F928F938FEFE6
:1048D00099E09F938F930E94BC078DEF99E00E940F
:1048E00023078BEE99E00E942307C3FB882780F9FA
:1048F0001F928F9388EE99E09F938F930E94BC073D
:1049000086EE99E00E9423078CED99E00E94230730
:10491000C4FB882780F91F928F9389ED99E09F93BC
:104920008F930E94BC0787ED99E00E94230785ECD6
:1049300099E00E942307C5FB882780F91F928F9377
:1049400082EC99E09F938F930E94BC0780EC99E0E2
:104950000E94230784EA99E00E942307C6FB882768
:1049600080F91F928F9381EA99E09F938F930E9421
:10497000BC078DB79EB780960FB6F8949EBF0FBE4A
:104980008DBF8FE999E00E94230787E999E00E9493
:104990002307C7FBCC27C0F91F92CF9384E999E086
:1049A0009F938F930E94BC0782E999E00E9423079E
:1049B0000F900F900F900F9081E01CC086EA9BE053
:1049C0000E9423070E94871DF7CF80EE97E00E9488
:1049D0002307F2CF8091EF01807F8093EF0189EB75
:1049E00097E00E94230782EA9BE00E94230781E070
:1049F0008093FC01DF91CF9108950E94981586E87D
:104A00009BE00E9423079FEF23ED80E3915020401D
:104A10008040E1F700C000000E94381FCDCF909188
:104A2000EF01892F8E7F90FF81608093EF0180FFDF
:104A300003C08AE79BE0CBCF8DE69BE00E94230773
:104A40008091EF01817F8093EF01B6CF9091EF01CC
:104A5000892F8D7F91FF82608093EF0181FF08C0D5
:104A600080E69BE00E9423078091EF018160EBCFFD
:104A700082E59BE0ACCF9091EF01892F8B7F92FF75
:104A800084608093EF0182FF03C083E49BE0EACF60
:104A900083E39BE09CCF9091EF01892F877F93FF69
:104AA00088608093EF0183FF03C087E29BE0DACF49
:104AB0008AE19BE08CCF8AEA97E00E94230782E894
:104AC00097E00E94230781E597E00E94230788E191
:104AD00097E00E9423078DED96E00E94230782EB6A
:104AE00096E075CF84EA96E00E9423070E94EC0FBF
:104AF0001F928F938AE896E09F938F930E94BC0742
:104B0000809112011F928F9383E796E09F938F937A
:104B10000E94BC07809121021F928F9380E696E04D
:104B20009F938F930E94BC0780912E0287FB88275A
:104B300080F91F928F9388E496E09F938F930E9451
:104B4000BC070E94CF1E9F938F937F936F9381E347
:104B500096E09F938F930E94BC078DB79EB74696B1
:104B60000FB6F8949EBF0FBE8DBF26CF0E9498153A
:104B700090912E02892F97FB87F9805880932E02FF
:104B800087FF03C080E19BE022CF85E09BE01FCF41
:104B900080E00E94492310CF8953FBCF8D51F9CF7C
:104BA00083E09BE00E94230780E024CF80E008950B
:104BB0000C94D6258E518A3030F4E82FF0E0EC5D6D
:104BC000FE4F8081089580E00895CF93C82F809193
:104BD000FC018130A9F0823009F446C0811136C150
:104BE0000E940F1C823209F033C18C2F0E94D625FF
:104BF00081111BC08C2F0E947A238170CF91089560
:104C00000E940F1C823289F38C2F0E94D8258111BB
:104C10001BC0C431D9F060F4CB3071F0C031D1F099
:104C200082E296E00E94230713C081E090E0E5CF86
:104C3000C93261F0C833A1F789EB97E00E942307DE
:104C400088E296E00E94230781E0D7CF1092FC0112
:104C500080E0D3CF0E940D2284E296E00E942307D9
:104C600082E08093FC01F0CFC93209F445C060F5C1
:104C7000C33109F450C050F4C73009F4CDC0CB3073
:104C8000C1F186EC94E00E9423071CC0C431A1F15D
:104C900082EE8C0F8630A8F78C2F0E94DA25809345
:104CA000FB018091FB01882309F4CDC01F928F93F3
:104CB00080EC94E09F938F930E94BC070F900F901D
:104CC0000F900F9081E09ACFCE3409F4A3C050F436
:104CD000C83379F06AE0CB34A1F68091FB010E94E1
:104CE0002422DFCFC13509F48FC061E0C235A9F3BA
:104CF000C8CF0E940D22D5CF8091FB01882319F0E7
:104D00001092FB01CECF85ED94E00E94230781E055
:104D10008093FC0173CF8FEA94E00E9423078DE912
:104D200094E00E942307809107011F928F938AE9E4
:104D300094E09F938F930E94BC0788E994E00E94BF
:104D4000230786E894E00E942307809106011F92C2
:104D50008F9383E894E09F938F930E94BC0781E830
:104D600094E00E94230782E794E00E942307809149
:104D700005011F928F938FE694E09F938F930E947B
:104D8000BC078DE694E00E9423078CE594E00E9426
:104D90002307809104011F928F9389E594E09F93EC
:104DA0008F930E94BC0787E594E00E94230782E46A
:104DB00094E00E942307809103011F928F938FE359
:104DC00094E09F938F930E94BC078DE394E00E9430
:104DD000230786E294E00E942307809102011F923C
:104DE0008F9383E294E09F938F930E94BC0781E2AC
:104DF00094E00E9423078DB79EB748960FB6F894AB
:104E00009EBF0FBE8DBF4DCF61E08091FB010E9420
:104E1000C92247CF6AE0F9CF8EE18093070182E390
:104E2000809306018AE08093050184E18093040168
:104E300088E08093030188E28093020188EC94E08B
:104E40000E9423072ECF8DEB94E01DCF1092FC0122
:104E500080E0D4CE8091200208959FB7F8941092FC
:104E6000FF019FBF90913402943009F048C0209117
:104E7000E9002F703091EC00932F917030FD90E895
:104E8000922B23E02093E9002091EB0020FF34C017
:104E90002091EE0027FF30C02091FD01222321F058
:104EA0002091E80025FF28C01092FD0126E03091F6
:104EB000E80035FF14C08093F1008091E80085FD83
:104EC00027C08091E80080FFFCCF8091E8008E77BA
:104ED0008093E8009F709093E90080E008953091FE
:104EE0003402343049F43091EB0035FD05C02150D7
:104EF00041F481E08093FD019F709093E9008FEF72
:104F00000895EFE9FFE03197F1F700C00000CFCF3F
:104F10008FB7F89421E02093FF018FBFDBCF0F9371
:104F20001F93CF93DF9300D00F92CDB7DEB78C01E4
:104F30000E94552A823011F0843021F584E0898363
:104F40000A831B8382E08093E9008FEF9091E80051
:104F5000815095FD06C095ED9A95F1F700008111FD
:104F6000F5CF8091E80085FF0DC050E040E063E0A0
:104F700070E0CE0101960E94722A8091E8008E773F
:104F80008093E8000F900F900F90DF91CF911F91C9
:104F90000F910895CF93DF9300D00F92CDB7DEB776
:104FA0009C0180913402843031F583E0898320585C
:104FB00031093B832A8382E08093E9008FEF90914F
:104FC000E800815095FD06C095ED9A95F1F7000037
:104FD0008111F5CF8091E80085FF0DC050E040E0E1
:104FE00063E070E0CE0101960E94722A8091E80091
:104FF0008E778093E8000F900F900F90DF91CF9104
:105000000895CF93DF93D82FC92F0E94552A82305D
:1050100011F0843001F582E08093E9008FEF9091E8
:10502000E800815095FD06C095ED9A95F1F70000D6
:105030008111F5CF8091E80085FF0DC050E040E080
:1050400066E070E08D2F9C2F0E94722A8091E8000C
:105050008E778093E800DF91CF910895CF93DF930F
:10506000D82FC92F0E94552A823011F08430C9F5FB
:10507000809112018823C1F180912E0287FF34C0F4
:1050800060E282E08093E9008FEF9091E800815028
:1050900095FD06C095ED9A95F1F700008111F5CFC9
:1050A0008091E80085FF1DC08091120170E050E002
:1050B00040E0811104C050E040E068E070E08D2FD6
:1050C0009C2F0E94722A8091E8008E778093E800DE
:1050D00080E2ED2FFC2FA0E0B2E001900D928A95C6
:1050E000E1F7DF91CF91089568E081E0CBCF87EEC3
:1050F0009BE00E94230780913302811109C00E9426
:10510000FA2B0E94572C8091E20084608093E20089
:10511000089583EE9BE00E942307109233020895C6
:105120008FED9BE00C9423078BED9BE00C94230701
:1051300087ED9BE00E9423070C948B1E2091FE01BB
:105140002F5F822F62E30E94F92E992319F020939A
:10515000FE0108951092FE018091FF018823F1F075
:10516000809134028430C1F49091E9009F702091C5
:10517000EC00822F817020FD80E8892B93E09093D2
:10518000E9009091EB0090FF04C09091EE0097FD34
:1051900008C08F708093E9001092FF01089510926B
:1051A000F1009091E80095FDFACF9091E80090FF12
:1051B000F0CF9091E8009E779093E800EACF42E02C
:1051C00061EC81E00E94762B42E261EC82E00E9479
:1051D000762B42E261EC83E00C94762B80913602D0
:1051E000893089F148F4823009F49DC0833009F494
:1051F00058C0813041F008958A3009F484C08B3062
:1052000009F46AC0089580913502813A09F048C0D6
:105210008091E800877F8093E80080913902909127
:105220003A02892B61F460E280E092E070E00E9433
:10523000C12A8091E8008B778093E800089560E0B0
:1052400090E080E0F3CF80913502813249F5809182
:10525000390290913A02029718F58091E800877F11
:105260008093E8008091E80082FF16C09091F300DF
:105270008091F200029729F48091F1008B7F8130B8
:1052800021F48091F100809320028091E8008B77D7
:105290008093E8000C94AA2B809134028111E2CF14
:1052A000089580913502813AD9F780913902909121
:1052B0003A02892BA9F78091E800877F8093E80064
:1052C0008091E80080FFFCCF809112018093F10073
:1052D0008091E8008E77DCCF80913502813201F732
:1052E0008091390290913A02892BD1F68091E800A1
:1052F000877F8093E8000E94AA2B809137028093D9
:1053000012010C94981580913502813249F68091F2
:10531000E800877F8093E8000E94AA2B80913802E2
:1053200080932102089580913502813A09F0B8CF27
:105330008091E800877F8093E8008091E80080FFFB
:10534000FCCF80912102C2CF84B7877F84BF0FB684
:10535000F894A89580916000886180936000109215
:1053600060000FBE80E880936100109261000E948F
:105370009C100E94FA2B0E94572C8091E2008460BE
:105380008093E2008DE297E20E94C41C78940E9410
:10539000DE2E0E94A41088E091E00E94E70F86ECC8
:1053A0009BE00E94230780913402853019F00E940F
:1053B000D410F9CF82EC9BE00E9423070E94421E8A
:1053C00080913202882379F30E94731E882359F357
:1053D0000E945C2AE8CF0C94ED29FC01CB01DA0194
:1053E0002F2F332723303105D1F070F421303105D0
:1053F00009F44EC02230310569F48BE590E02DE0D0
:105400003CE02D933C9308952132310521F1223265
:10541000310571F190E080E030E020E0F2CFCF0183
:105420009927E230A9F08330910550F4009769F094
:10543000E1E0FCE0019771F7849190E09F01E1CFFA
:10544000EBEEFBE00397C1F3E5CFE9E0FCE0F4CF3E
:10545000E1EFFBE0F1CF63307105E0F6880F991FB3
:10546000FC01E95CFE4F2081318189E090E0C9CFE9
:105470006330710578F6FB01EE0FFF1FEF5CFE4F06
:1054800020813181825D9E4FFC01808190E0B9CF07
:1054900082E190E028E63CE0B4CF80913402843091
:1054A00011F482E0089581E0089580912202811133
:1054B00002C00C944D2A089580E189BD82E189BD26
:1054C00009B400FEFDCF8091D8008F7D8093D80075
:1054D0008091E00082608093E0008091E00081FD97
:1054E000FCCF0895AF92BF92CF92DF92FF920F93BD
:1054F0001F93CF93DF936C01EB018A010E94C92BAC
:10550000F82E811123C00115110539F0F8018081B1
:105510009181C81BD90BC80ED91EB12CA12C209784
:10552000A9F08091E80085FD22C08091E8008E7787
:105530008093E80001151105A1F0F80180819181A7
:10554000A80EB91EB182A08285E0F82E8F2DDF91C2
:10555000CF911F910F91FF90DF90CF90BF90AF90B0
:1055600008950E94C92B8823D1F2F82EEFCFF601BF
:1055700081916F018093F1002197FFEFAF1ABF0A6D
:10558000CECFFC01CB0120913B0230913C0226178B
:10559000370790F0009729F42091E8002E772093A8
:1055A000E80040E0009751F4411108C08091E80004
:1055B00082FF31C080E00895C901F3CF2091340209
:1055C0002223A9F12530A9F12091E80023FD2DC067
:1055D0002091E80022FDEACF2091E80020FFE2CFF1
:1055E0003091F3002091F200009719F02830310536
:1055F00058F041E02830310509F040E02091E80002
:105600002E772093E800CECF41914093F10001978F
:105610002F5F3F4FE9CF80913402882341F08530DE
:1056200041F08091E80083FFC1CF81E0089582E0DE
:10563000089583E00895FC01CB0120913B02309155
:105640003C022617370790F0009729F42091E800D4
:105650002E772093E80040E0009751F4411108C0F4
:105660008091E80082FF32C080E00895C901F3CF45
:10567000209134022223B1F12530B1F12091E800CC
:1056800023FD2EC02091E80022FDEACF2091E80002
:1056900020FFE2CF3091F3002091F200009719F043
:1056A0002830310558F041E02830310509F040E05C
:1056B0002091E8002E772093E800CECF44914093CC
:1056C000F100319601972F5F3F4FE8CF8091340270
:1056D000882341F0853041F08091E80083FFC0CFFE
:1056E00081E0089582E0089583E00895982F97302F
:1056F00028F08F708093E90081E008959093E9008D
:10570000242F762F50E0981731F07091EC00209103
:10571000ED005091F00021FD02C09F5FE8CF309175
:10572000EB003E7F3093EB003091ED003D7F3093F6
:10573000ED003091EB0031603093EB007093EC00A2
:105740002093ED005093F0002091EE0027FDE5CF6F
:1057500080E008958091350287FF13C08091E800B2
:1057600082FF06C08091E8008B778093E80004C038
:10577000809134028111F2CF089580913402882300
:10578000D9F38091E80080FFF8CF8091E8008E7710
:10579000ECCF2091E4003091E50095E6A90120913D
:1057A000EC00822F817020FF06C08091E80080FF0E
:1057B00006C080E008952091E80022FD1AC0809183
:1057C0003402882389F0853089F08091EB0085FDD3
:1057D0000FC02091E4003091E50042175307F9F221
:1057E0009150E1F684E0089582E0089583E0089501
:1057F00081E008950E94682C0E94702CE0EEF0E099
:10580000808181608083E8EDF0E080818F77808304
:1058100019BCA7EDB0E08C918E7F8C9380818F7E38
:1058200080831092330208950F931F93CF93DF93D9
:105830000E94682C0E94702CC8EDD0E088818F7780
:10584000888388818068888388818F7D888319BC5C
:1058500010923402109230021092320210923102F1
:1058600000EE10E0F80180818B7F80838881816069
:10587000888342E060E080E00E94762BE1EEF0E079
:1058800080818E7F8083E2EEF0E080818160808382
:10589000808188608083F80180818E7F8083888109
:1058A00080618883DF91CF911F910F910895E8ED7A
:1058B000F0E080818F7E8083E7EDF0E08081816081
:1058C000808384E082BF81E0809333020C94142CA7
:1058D000E8EDF0E080818E7F80831092E2000895F1
:1058E0001092DA001092E10008951F920F920FB605
:1058F0000F9211242F933F934F935F936F937F9356
:105900008F939F93AF93BF93EF93FF938091E100A9
:1059100082FF0BC08091E20082FF07C08091E1000E
:105920008B7F8093E1000E949E288091DA0080FFA7
:1059300019C08091D80080FF15C08091DA008E7F59
:105940008093DA008091D90080FF94C080E189BD06
:1059500082E189BD09B400FEFDCF81E0809334026D
:105960000E9477288091E10080FF19C08091E200B9
:1059700080FF15C08091E2008E7F8093E2008091CD
:10598000E20080618093E2008091D8008062809381
:10599000D80019BC85E0809334020E94942880913D
:1059A000E10084FF29C08091E20084FF25C080E1EE
:1059B00089BD82E189BD09B400FEFDCF8091D80088
:1059C0008F7D8093D8008091E1008F7E8093E100ED
:1059D0008091E2008F7E8093E2008091E2008160FE
:1059E0008093E20080913002882309F449C084E06A
:1059F000809334020E9498288091E10083FF29C09F
:105A00008091E20083FF25C08091E100877F809331
:105A1000E10082E080933402109230028091E10034
:105A20008E7F8093E1008091E2008E7F8093E20080
:105A30008091E20080618093E20042E060E080E0DB
:105A40000E94762B8091F00088608093F0000E9485
:105A50009028FF91EF91BF91AF919F918F917F918E
:105A60006F915F914F913F912F910F900FBE0F90CB
:105A70001F90189519BC109234020E94892872CF89
:105A80008091E30087FD02C081E0B2CF83E0B0CF18
:105A90001F920F920FB60F9211242F933F934F93A3
:105AA0005F936F937F938F939F93AF93BF93CF93A6
:105AB000DF93EF93FF93D091E900DF708091EC00CA
:105AC000C82FC17080FDC0E81092E9008091F000FD
:105AD000877F8093F00078940E948C2D1092E900CB
