:100000000C9472050C94B9050C94B9050C94B905BF
:100010000C94B9050C94B9050C94B9050C94B90568
:100020000C94B9050C94B9050C943C250C940F263E
:100030000C94A61C0C94B9050C94B9050C94B90544
:100040000C94B9050C94B9050C94B9050C94B90538
:100050000C94B9050C940E1D0C94B9050C94B905BB
:100060000C94B9050C94B9050C94B9050C94B90518
:100070000C94B9050C94B9050C94B9050C94B90508
:100080000C94B9050C94B9050C94B9050C94B905F8
:100090000C94B9050C94B9050C94B9050C94B905E8
:1000A0000C94B9050C94B9050C94B90529001400F9
:1000B0001A0008001500170000001C0018000C00B2
:1000C000120013002A002B0004001600070009008C
:1000D0000A0000420B000D000E000F003300340038
:1000E000E1001D001B000600190005000041110081
:1000F00010003600370038002800E000000000043F
:10010000E300004100422C005000510052004F001B
:100110000000E50035001E001F0020002100220025
:100120000000230024002500260027004C000100C9
:100130004E004B004A004D002D0201002E002D0004
:100140002E022602270231003900AA00A900010070
:100150000100010001000100010001000100010097
:100160000100010000000100010001000100010088
:1001700001000100010001000000010035023A0009
:100180003B003C003D003E0000003F0040004100BD
:1001900042004300440001001E021F02200221020F
:1001A000220201002302240225022F003000310226
:1001B00001003B703A7036703770347001000100F6
:1001C000010001002F0230020100010000000100C7
:1001D00038703970010001000100010001000100C8
:1001E0000000007001000100010001000100010099
:1001F00000000100010001000100010001000100F8
:1002000001000100010001000100010001000100E6
:1002100001000100010001000100010001000100D6
:1002200001000100010001000100010001000100C6
:1002300001000100000001000100010001000100B7
:1002400001000100010001000000010001000100A7
:100250000100010001000100000001000100010097
:100260000100010001000100010001000100010086
:100270000100010001000100010001000100010076
:100280000100010001000100010001000100010066
:100290000100010001000100010001000000010057
:1002A0000100010001000100010001000100010046
:1002B0000000010001000100010001000100010037
:1002C0000000010001000100010001000100010027
:1002D0000100010001000100010001000100010016
:1002E0000100010001000100010001000100010006
:1002F00001000100010001000100010001000100F6
:1003000001000100000001000100010001000100E6
:1003100001000100010001000000010001000100D6
:1003200001000100010001000000010001000100C6
:1003300001000100010001000100010001000100B5
:1003400001000100010001000100010001000100A5
:100350000100010001000100010001000100010095
:100360000100010001000100010001000000010086
:100370000100010001000100010001000100010075
:100380000000010001000100010001000100010066
:100390000000010001000100010001000100010056
:1003A0000100010001000100010001000100010045
:1003B0000100010001000100010001000100010035
:1003C0000100010001000100010001000100010025
:1003D0000100010000000100010001000100010016
:1003E0000100010001000100000001000100010006
:1003F00001000100010001000000010001000100F6
:1004000001000100010001000100010001000100E4
:1004100001000100010001000100010001000100D4
:1004200001000100010001000100010001000100C4
:1004300001000100010001000100010000000100B5
:1004400001000100010001000100010001000100A4
:100450000000010001000100010001000100010095
:100460000000010001000100010001000100010085
:100470000100010001000100010001000100010074
:100480000100010001000100010001000100010064
:100490000100010001000100010001000100010054
:1004A0000100010000000100010001000100010045
:1004B0000100010001000100000001000100010035
:1004C0000100010001000100000001000100010025
:1004D0000100010001000100010001000100010014
:1004E0000100010001000100010001000100010004
:1004F00001000100010001000100010001000100F4
:1005000001000100010001000100010000000100E4
:1005100001000100010001000100010001000100D3
:1005200000000100010001000100010001000100C4
:1005300000000100010001000100010001000100B4
:1005400001000100010001000100010001000100A3
:100550000100010001000100010001000100010093
:100560000100010001000100010001000100010083
:100570000100010000000100010001000100010074
:100580000100010001000100000001000100010064
:100590000100010001000100000001000100010054
:1005A0000100010001000100010001000100010043
:1005B0000100010001000100010001000100010033
:1005C0000100010001000100010001000100010023
:1005D0000100010001000100010001000000010014
:1005E0000100010001000100010001000100010003
:1005F00000000100010001000100010001000100F4
:1006000000000100010001000100010001000100E3
:1006100001000100010001000100010001000100D2
:1006200001000100010001000100010001000100C2
:1006300001000100010001000100010001000100B2
:1006400001000100000001000100010001000100A3
:100650000100010001000100000001000100010093
:100660000100010001000100000001000100010083
:100670000100010001000100010001000100010072
:100680000100010001000100010001000100010062
:100690000100010001000100010001000100010052
:1006A0000100010001000100010001000000010043
:1006B0000100010001000100010001000100010032
:1006C0000000010001000100010001000100010023
:1006D0000000010001000100010001000100010013
:1006E0000100010001000100010001000100010002
:1006F00001000100010001000100010001000100F2
:1007000001000100010001000100010001000100E1
:1007100001000100000001000100010001000100D2
:1007200001000100010001000000010064321464B6
:100730003214783C1E1E140A05000000000101015D
:100740000202030405050607090A0B0C0E0F11121D
:10075000141517191B1D1F212325282A2C2F31346E
:1007600036393B3E414346494C4F5255585A5D61DC
:1007700064676A6D707376797C7F8386898C8F92CB
:1007800095989B9EA2A5A7AAADB0B3B6B9BCBEC1B1
:10079000C4C6C9CBCED0D3D5D7DADCDEE0E2E4E6FE
:1007A000E8EAEBEDEEF0F1F3F4F5F6F8F9FAFAFB1E
:1007B000FCFDFDFEFEFEFFFFFFFFFFFFFFFEFEFE56
:1007C000FDFDFCFBFAFAF9F8F6F5F4F3F1F0EEEDC5
:1007D000EBEAE8E6E4E2E0DEDCDAD7D5D3D0CECB54
:1007E000C9C6C4C1BEBCB9B6B3B0ADAAA7A5A29EC6
:1007F0009B9895928F8C898683807C797673706DB7
:100800006A6764615D5A5855524F4C494643413EB0
:100810003B393634312F2C2A282523211F1D1B1943
:1008200017151412110F0E0C0B0A09070605050403
:1008300003020201010100000000000000000101AC
:10084000010101010101010202020202020202028F
:10085000030303030303030304040404040405055E
:10086000050505060606060607070707080808081F
:100870000909090A0A0A0A0B0B0B0C0C0C0D0D0DC9
:100880000E0E0F0F0F10101111111212131314145A
:10089000151516161717181819191A1A1B1C1C1DCE
:1008A0001D1E1F1F20202122222324252526272725
:1008B00028292A2B2B2C2D2E2F2F30313233343553
:1008C00036363738393A3B3C3D3E3F40414243445F
:1008D000464748494A4B4C4D4F5051525355565735
:1008E000585A5B5C5E5F606263646667696A6C6DE0
:1008F0006E707173747678797B7C7E808183848658
:10090000888A8B8D8F91929496989A9B9D9FA1A394
:10091000A5A7A9ABADAFB1B3B5B7B9BBBDBFC1C496
:10092000C6C8CACCCFD1D3D6D8DADCDFE1E4E6E85A
:10093000EBEDF0F2F5F7FAFCFF12036B00650079BE
:100940000062006F00610072006400000016037115
:10095000006D006B006200750069006C006400654A
:1009600000720000000403090409026D0004010084
:10097000A0FA09040000010301010009211101008E
:10098000012240000705810308000A090401000153
:1009900003010200092111010001224D0007058217
:1009A0000308000A090402000103000000092111E4
:1009B0000100012236000705830308000A09040329
:1009C0000001030000000921110100012239000784
:1009D0000584032000011201100100000008EDFE53
:1009E000606001000102000105010906A10105077F
:1009F00019E029E715002501950875018102050810
:100A0000190129059505750191029501750391015B
:100A10000507190029F71500250195F875018102D0
:100A2000C005010980A10185021601002603001AF4
:100A300081002A8300751095018100C0050C090111
:100A4000A1018503160100269C021A01002A9C02BE
:100A5000751095018100C005010902A1010901A1DC
:100A60000005091901290515002501950575018164
:100A700002950175038101050109300931158125B0
:100A80007F95027508810609381581257F950175C6
:100A9000088106050C0A38021581257F9501750825
:100AA0008106C0C005010906A101050719E029E773
:100AB00015002501950875018102950175088101D0
:100AC0000508190129059505750191029501750320
:100AD00091010507190029FF150026FF00950675ED
:100AE000088100C011241FBECFEFDAE0DEBFCDBF0A
:100AF00004B603FE27C080917A0290917B02A091F8
:100B00007C02B0917D028730904BA740B04BD1F46E
:100B100010927A0210927B0210927C0210927D0257
:100B200014BE84B7877F84BF0FB6F894A8958091D0
:100B30006000886180936000109260000FBEE0E06A
:100B4000F8E3099511E0A0E0B1E0EAECF2E502C0BB
:100B500005900D92AA33B107D9F722E0AAE3B1E0DC
:100B600001C01D92AA37B207E1F70E9489220C94B6
:100B700063290C94000090E080E0089508950895A2
:100B800081E00895089581E008950C94C0050E94C5
:100B900018152FEF84E39CE0215080409040E1F74E
:100BA00000C000000C94331DFF920F931F93CF934E
:100BB000DF938C01FC01C081D1818091850181117D
:100BC00048C08281882309F43FC0CE010E947F1A69
:100BD000F82E682FCE010E94251ABE018F2D0E948B
:100BE0007007EC01B8010E94C505882309F478C09C
:100BF000B801CE010E948009882309F471C0C63370
:100C0000F0E7DF0709F484C0C0F5C53190E7D907E4
:100C100028F5C230E0E7DE0708F099C0C115F0E71B
:100C2000DF0709F458C0C130D04709F460C081E043
:100C300080933C0180933D01C801DF91CF911F91CA
:100C40000F91FF900C94C305CE010E94541AF82E08
:100C5000C4CFCE010E947F1ABE01C1CFC43390E73A
:100C6000D90709F44EC0C533D04709F7F80182818E
:100C70008823B1F10E94A10D33C0CA33F0E7DF072A
:100C800009F457C070F4F8018281C833F0E7DF0738
:100C900009F44AC008F443C0882311F10E94E50C0E
:100CA0001FC0CC33E0E7DE0709F4D5C008F448C024
:100CB000CD33D04709F0BBCFF8018281882309F4F6
:100CC000F1C010923D010E94D81C90933B0180938B
:100CD0003A0180E2CDC0F801828181110E94C705EE
:100CE00080E0DF91CF911F910F91FF900895F8015F
:100CF00082818823A9F380910E02816080930E0285
:100D0000EFCFF8018281882359F30E94AB0DE8CF21
:100D1000F8018281882321F30E94960CE1CF882379
:100D2000F9F20E94AE0CDCCF8823D1F20E94CD0CE8
:100D3000D7CFF8018281882399F20E94FD0CD0CF91
:100D4000F8018281882361F20E94150DC9CFF80154
:100D50008281882309F470CF0E94371C811102C060
:100D60000E94161C0E94541C90E090936C02809389
:100D70006B02FE01E350F04780916B028160E2312B
:100D8000F105C8F4EA53F94F0C941529D806E40686
:100D9000E806EC06F006F406F806FC060007040771
:100DA00008070C071007140718071C07200724075B
:100DB00080916B02826080936B0280916B020E9433
:100DC000581C0E9418158CCF80916B028460F3CF61
:100DD00080916B028860EFCF80916B028061EBCFD6
:100DE00080916B028062E7CF80916B028064E3CFD9
:100DF00080916B028068DFCF80916B028460EACFC4
:100E000080916B028E7FD7CF80916B028D7FD3CF85
:100E100080916B028B7FCFCF80916B02877FCBCF8E
:100E200080916B028F7EC7CF80916B028F7DC3CF85
:100E300080916B028F7BBFCF80916B028F77BBCF8E
:100E400080916B028B7FEACF90916B02892F97FB89
:100E500087F98058B0CFF8018281882361F0109221
:100E60003C010E94D81C90933B0180933A0182E0A0
:100E70000E94A21235CF80913C0181110FC0809158
:100E80003A0190913B010E94E41C883C910530F4AA
:100E900086E20E94771186E20E94531282E00E944D
:100EA000A9121ECF80913D0181110FC080913A019E
:100EB00090913B010E94E41C883C910530F487E24C
:100EC0000E94771187E20E94531280E2E8CF0C94CF
:100ED000CF090C94D1090C94C2050C946B070895AA
:100EE000972F70E02DE0929F600D711D1124FB0182
:100EF00094E3899FE00DF11D1124EE0FFF1FE455CF
:100F0000FF4F859194910895FC01EE0FFF1FE45D62
:100F1000F84F8591949108950E9470070E94FF08F0
:100F2000811520E4920708F08DC0811540E39407F5
:100F300008F0E8C0803E910508F071C0803C910542
:100F400008F0CCC0883A910580F4853A910508F004
:100F5000CAC08130910509F46EC020F0843091053B
:100F600008F069C090E080E008958D3B9105D0F7CE
:100F7000883A910509F404C1893A910509F403C13D
:100F80008A3A910509F402C18B3A910509F401C12D
:100F90008C3A910509F400C18B3B910509F4FFC01F
:100FA0008C3B910509F4FEC08D3A910509F4FDC012
:100FB000803B910509F4FCC08E3A910509F4FBC011
:100FC0008F3A910509F4FAC0813B910509F4F9C003
:100FD000823B910509F4F8C0833B910509F4F7C001
:100FE000843B910509F4F6C0853B910509F4F5C0F1
:100FF000863B910509F4F4C0873B910509F4F3C0E1
:10100000883B910509F4F2C0893B910509F4F1C0D0
:101010008A3B910509F4F0C080E094E408958F3F85
:10102000910509F048F4803F910508F067C0883EBB
:10103000910508F097CF0895811520E2920708F0F6
:101040005FC00895811543E5940760F5811522E599
:10105000920708F062C0811541E5940708F058C076
:10106000811520E5920708F450C09C0154E03695A4
:1010700027955A95E1F7922F9370482F437021E0FE
:1010800030E002C0220F331F4A95E2F73C68392B4B
:1010900086958695837040E2849FC0011124822B3F
:1010A000932B0895811545E5940750F4811524E5A7
:1010B000920708F446C0982F8827846F906A089595
:1010C000811546E5940708F450C09C0130569F7086
:1010D0002115304108F046CF90620895805C910957
:1010E0000E9484070895853A910509F443C0863A21
:1010F000910509F042C082E890E408959065089552
:101100009F70EECF9927906C08959F70906A089514
:10111000982F8827816F906A0895AC0143705527F6
:1011200021E030E002C0220F331F4A95E2F7869596
:10113000869540E2849FC0011124822B932B9C68EA
:101140000895AC014370552721E030E002C0220F22
:10115000331F4A95E2F78695869540E2849FC00149
:101160001124822B932B9A680895982F882788271B
:101170009F71B2CF81E890E4089583E890E40895E8
:1011800082EE94E4089589EE94E408958AEE94E45E
:10119000089585EB94E4089586EB94E4089583EB39
:1011A00094E4089584EB94E4089587EB94E408951F
:1011B0008CEC94E408958DEC94E4089583E895E430
:1011C00008958AE895E4089582E995E4089584E90C
:1011D00095E4089581E296E4089583E296E4089503
:1011E00084E296E4089585E296E4089586E296E422
:1011F000089587E296E408958AE296E41CCF823847
:10120000910549F1B0F48133910509F45CC048F4CB
:101210008932910509F452C08A32910509F458C007
:1012200008958533910509F444C08933910599F0F7
:101230000895833E910531F138F4803E910591F097
:10124000823E9105B1F00895863E910511F1873EE9
:10125000910541F1089520916B022370C9F080EE51
:1012600090E0089520916B0220FF12C089E390E086
:10127000089520916B0222FF0BC024FF2EC090E046
:1012800080E0089520916B0222FD2AC024FDF7CF53
:10129000089520916B0223FFFBCF24FDF0CF87EE52
:1012A00090E0089520916B0223FFF0CF86EE90E04E
:1012B000089520916B0225FD16C0089520916B02C0
:1012C00025FD14C0089520916B0226FD12C00895DB
:1012D00020916B0226FD10C0089583EE90E00895E2
:1012E00082EE90E0089589E290E0089585E390E031
:1012F00008958AE290E0089581E390E0C9CF0895CF
:101300000F931F93CF938C01FB018281811106C043
:10131000C1E08C2FCF911F910F910895C0914B0187
:10132000C11125C00531104799F70E947F0981E05E
:1013300080934B010E94D81C90934A0180934901ED
:1013400010923E011092400110923F011092420112
:1013500010924101109244011092430110924601F3
:10136000109245011092480110924701D2CF80910E
:10137000490190914A010E94E41C883C910540F685
:1013800080913E01E82FF0E0EE0FFF1FE15CFE4F81
:10139000118300838F5F80933E01C0E0BACF0C942D
:1013A000BE050C94BF05CF93DF9385B7806885BFDA
:1013B00085B7806885BFA4E1B1E041E251E0C1E0BA
:1013C000D0E08D91E82FE295EF70F0E061A18F7091
:1013D0009E0101C0220F8A95EAF7922F90959623DD
:1013E00091A382A1822B82A34A175B0751F7A1E246
:1013F000B1E045E251E0C1E0D0E08D91E82FE29507
:10140000EF70F0E061A18F709E0101C0220F8A95FC
:10141000EAF7922F9095962391A382A1822B82A323
:101420004A175B0751F71092550110925401109220
:101430004D0110924C0110925701109256011092DA
:101440004F0110924E0110925901109258011092C2
:1014500051011092500110925B0110925A011092AA
:10146000530110925201DF91CF910C9467072F9294
:101470003F924F925F926F927F928F929F92AF9224
:10148000BF92CF92DF92EF92FF920F931F93CF9371
:10149000DF9304E111E0312C212CEE24E394F12CB4
:1014A00095E2892E91E0992E55245394E801899173
:1014B0008E01E82FE295EF70F0E091A18F70970117
:1014C00001C0220F8A95EAF7892F822B81A382A17E
:1014D000722E7094872182A3D0EADA95F1F7670122
:1014E000022C02C0CC0CDD1C0A94E2F75601A09439
:1014F000B094ACE4B1E041E251E0612C6D917C919B
:101500001197EA014990AE01842D82958F7090E089
:10151000EC0188A190E0D42DDF7002C095958795ED
:10152000DA95E2F780FD6EC0CB018C299D291196DA
:101530009C938E938D919C9111976817790711F068
:1015400066246394129684169506C1F681A17822CA
:1015500071A282A1282B22A3662041F050925C0147
:101560000E94D81C90935E0180935D01EFEF2E1ACC
:101570003E0AFDE02F16310409F098CF80915C01FE
:10158000882351F180915D0190915E010E94E41CDD
:10159000069710F180914C0190914D019093550167
:1015A0008093540180914E0190914F019093570187
:1015B000809356018091500190915101909359016F
:1015C00080935801809152019091530190935B0157
:1015D00080935A0110925C010E94690781E0DF91BB
:1015E000CF911F910F91FF90EF90DF90CF90BF9020
:1015F000AF909F908F907F906F905F904F903F90B3
:101600002F900895CB018A219B2191CFE82FF0E004
:10161000EE0FFF1FEC5AFE4F8081918108950895CF
:101620003BB1242F209523233BB1432B3FB7F894A4
:10163000FC01680F791FE617F70711F43FBF089503
:10164000819198E04BB9000000C087FF2BB9880F4B
:10165000000000C000C000C02BB900C09A9591F7EF
:10166000EACF2AB1242B2AB99B01220F331F620F24
:10167000731F0E94100B87EC90E00197F1F700C0F8
:101680000000089544E00C94310BCF92DF92EF926A
:10169000FF920F931F93CF93DF93E901662309F421
:1016A00066C0E42EF12CEFEFF0E0E61BF109EE9DB1
:1016B0008001EF9D100DFE9D100D1124212FE12FB3
:1016C000FF27EE1AFF0A5CE3C52ED12CB6010E945B
:1016D000ED28FB01BC01E69EC001E79E900DF69E41
:1016E000900D1124B6010E94ED28E230F10589F138
:1016F00068F4812F262F210F309781F0242F461B6D
:10170000319761F080E020E040E008C0E430F1056E
:1017100051F128F1842F861B3597A1F7E42FF0E0D3
:10172000E75CF74F4491E22FF0E0E75CF74F9491CC
:10173000E82FF0E0E75CF74FE49149839883EA8370
:10174000DF91CF911F910F91FF90EF90DF90CF909D
:101750000895862F810FE42F412F2E2FDFCFE42F06
:10176000E61B842FF9CF842F462F410FD7CF842F2C
:10177000242FD4CF88E090E00C942329AB01BC0146
:1017800088E090E00C944129EBE3F2E083E0808371
:1017900010923C028FEF8283838360913B027091B1
:1017A0003C0280913D0290913E020C94BE0B8091D0
:1017B0003B02E3E4F2E080FF06C06CE070E083E40B
:1017C00092E00C94420B118210821282339682E0D6
:1017D000E736F807C1F7F1CFE3E4F2E081836083F5
:1017E0004283339692E0E736F907C1F70C94D70BA2
:1017F000EF92FF920F931F93CF93DF9300D01F922E
:10180000CDB7DEB7182FE92EF62E042F80913B02BC
:1018100090913C02A0913D02B0913E0280933F0224
:1018200090934002A0934102B093420280913B0208
:1018300080FF1FC09E012F5F3F4F812F9E2D0E9472
:10184000450B80913F0210FB87F980933F0216956C
:10185000809140028078812BE0FA87F980934002E2
:10186000F0924102009342024B8169818A810E9479
:10187000EC0B0F900F900F90DF91CF911F910F9174
:10188000FF90EF9008950F931F93CF93DF93EC0198
:10189000062F142F90913B0290FF43C0892F8E7723
:1018A000823021F5CE010E94F80B80913B02C0FBF3
:1018B00087F980933B02C69580913C028078C82BC3
:1018C000D0FBC7F9C0933C0200933D0210933E0247
:1018D00060913B0270913C0280913D0290913E02EA
:1018E000DF91CF911F910F910C94BE0B892F86959C
:1018F0008F732EE3280F2F73243018F410913E02BB
:10190000D4CF865C8F73893080F6991F9927991FF1
:10191000D0913C02CD2FCC0FC92BD7FBDD27D0F9BE
:10192000C4CFDF91CF911F910F910895EBE3F2E0C7
:101930002081221F2227221F30913C02432F440F77
:10194000842F822B37FB992790F9089668E671E07F
:101950000E940129438162810C94430C20913B0237
:10196000221F2227221F30913C02432F440F842F35
:10197000822B37FB992790F98830910540F4805AE3
:101980009E4F40913E0260913D020C94430C08979B
:1019900068E671E00E940129F4CF60913D02683F42
:1019A00090F4685F80913B02881F8827881F909180
:1019B0003C02292F220F97FB992790F940913E0274
:1019C000822B0C94430C6FEFEDCF60913D02683099
:1019D00090F0685080913B02881F8827881F909163
:1019E0003C02292F220F97FB992790F940913E0244
:1019F000822B0C94430C60E0EDCF40913E02483FB7
:101A000090F4485F80913B02881F8827881F90913F
:101A10003C02292F220F97FB992790F960913D02F4
:101A2000822B0C94430C4FEFEDCF40913E02483097
:101A300090F0485080913B02881F8827881F909122
:101A40003C02292F220F97FB992790F960913D02C4
:101A5000822B0C94430C40E0EDCF90913B0290FF21
:101A60003BC09178811126C0926090933B026091B7
:101A70003B0270913C0280913D0290913E020E9497
:101A8000BE0B80913B02982F9E779230D9F4109232
:101A90007401881F8827881F90913C02292F220FEC
:101AA00097FB992790F940913E0260913D02822B6D
:101AB0000C94430C893110F09063D7CF8F73880F4B
:101AC000982BD3CF982F9695925C9F73963108F7F9
:101AD00091E090937401DDCF089580910E028160B2
:101AE00080930E0281E0809375010E94371C811162
:101AF00004C00E94161C0E94C40B0E94BA0B609383
:101B00003B0270933C0280933D0290933E026E77BD
:101B100061F40E94C40B0E94BA0B60933B02709365
:101B20003C0280933D0290933E0281E080937401D9
:101B300080913B0280FF04C086958F730C942D0D1D
:101B4000089580913B0286958F738F5F893108F0ED
:101B500081E00C942D0D90913B02892F8E7F90FF98
:101B6000816080933B0260913B0270913C028091C6
:101B70003D0290913E020E94BE0B80913B0280FF8D
:101B800004C086958F730C942D0D109274012FEF65
:101B900080E792E0215080409040E1F700C00000D3
:101BA0000C94D70BCF93C82F809172019091730141
:101BB0000E94E41CEC2FF0E0EB5CF84FE491E81796
:101BC000190609F010F50E94D81C909373018093B8
:101BD0007201E0917101F0E0E75CF84F449180916F
:101BE0003B02881F8827881F90913C02292F220FD3
:101BF00097FB992790F960913D02822B0E94F80B88
:101C0000809171018F5F80937101CF910895CF937F
:101C1000C82F80916F01909170010E94E41CEC2FFD
:101C2000F0E0EE5CF84FE491E817190609F0E8F4EB
:101C30000E94D81C9093700180936F0140913E02E6
:101C400060913D0280916D0190916E010E94F80BB0
:101C500080916D0190916E01019668E671E00E949D
:101C6000ED2890936E0180936D01CF910895CF92EE
:101C7000DF92FF920F931F93CF93DF93F82E809103
:101C80006B0190916C010E94E41CEF2DE695F0E051
:101C9000EE5CF84FE491E817190609F0A8F50E94E8
:101CA000D81C90936C0180936B0103E412E0D0E0A8
:101CB000C0E088E6C82EDD24D3948091690190911C
:101CC0006A018C0F9D1FB6010E94ED28980140917A
:101CD0003E0260913D020E94450B6E960D5F1F4FC4
:101CE000C83681E0D80749F70E94D70B8091690177
:101CF00090916A01F0FE10C00196BE010E94ED288D
:101D000090936A0180936901DF91CF911F910F91A8
:101D1000FF90DF90CF9008950197F2CFAF92BF92DE
:101D2000CF92DF92EF92FF920F931F93CF93DF93A7
:101D3000C82FFF24FA9480FD02C0FF24F394809101
:101D40006701909168010E94E41CC695EC2FF0E0B9
:101D5000E15DF84FE491E817190611F008F053C05F
:101D60000E94D81C9093680180936701C3E4D2E07D
:101D700010E000E097E0C92ED12C198218821A8257
:101D800087E0A82EB12CE12C809166018E0D87FD95
:101D9000845F082E000C990B08171907E9F42091AD
:101DA0003E022A9DC0012B9D900D1124B6010E9478
:101DB0000129462F80913B02881F8827881F909118
:101DC0003C02592F550F97FB992790F99E0160917E
:101DD0003D02852B0E94450BEF0C81E0A81AB1084B
:101DE00099F60F5F1F4F23960C30110531F60E94B4
:101DF000D70B8091660191E0F91212C081110EC0DB
:101E00008BE080936601DF91CF911F910F91FF903E
:101E1000EF90DF90CF90BF90AF9008958150F1CFB9
:101E200090E00196B8010E940129EBCFBF92CF92BA
:101E3000DF92EF92FF920F931F93CF93DF93CDB773
:101E4000DEB7A4970FB6F894DEBF0FBECDBF182F34
:101E500080916401909165010E94E41CE12FF0E003
:101E6000E45DF84FE491E817190611F008F07AC024
:101E70000E94D81C90936501809364018E010F5FCE
:101E80001F4FF12CE12C6801D80111961C9211977B
:101E90001C9212961C92B12C9091000180916301CA
:101EA000B99E800D11248C300CF08BE087FD80E012
:101EB000082E000C990BE816F906A1F480913B025C
:101EC000881F8827881F90913C02592F550F97FB38
:101ED000992790F9980140913E0260913D02852B2F
:101EE0000E94450BB394B7E0BB12D6CFEFEFEE1ACA
:101EF000FE0A0D5F1F4FFCE0EF16F10429F623E404
:101F000032E009E010E05CE0E52EF12CC801B701F9
:101F10000E940129FC01EE0FFF1FE80FF91FEC0DD5
:101F2000FD1D8181D90111968C93119780818C932D
:101F3000828112968C930F5F1F4F2D5F3F4F0531AB
:101F4000110521F70E94D70B909100018091630148
:101F50009130E1F48A3FB4F489EF809363018FEF0D
:101F600080930001A4960FB6F894DEBF0FBECDBFDC
:101F7000DF91CF911F910F91FF90EF90DF90CF9065
:101F8000BF900895815080936301ECCF83312CF092
:101F900082E18093630181E0E3CF8F5FF4CFCF9341
:101FA000DF9380916101909162010E94E41C883E60
:101FB000934028F10E94D81C9093620180936101A4
:101FC00080915F01909160010196817099279093B3
:101FD000600180935F01C3E4D2E09E0140913E0224
:101FE00060913D0290E080E00E94450B239682E0E4
:101FF000C736D80791F7DF91CF910C94D70BDF91BB
:10200000CF91089580917401882371F180913B02F2
:1020100086958F739EE3980F9F73943018F48250C7
:102020000C94D20D9AE3980F9F73933018F4865056
:102030000C94070E97E3980F9F73963018F489500D
:102040000C94370E91E3980F9F73963018F48F50CD
:102050000C948E0E9BE2980F9F73933018F4855169
:102060000C94160F0C94CF0F089590937B018093DE
:102070007A010895E0917A01F0917B01309721F087
:102080000190F081E02D099480E00895E0917A01BB
:10209000F0917B01309721F00280F381E02D0994CB
:1020A0000895E0917A01F0917B01309721F004804E
:1020B000F581E02D099408952091780130917901FE
:1020C0002817390771F09093790180937801E09196
:1020D0007A01F0917B01309721F00680F781E02DA5
:1020E00009940895209176013091770128173907D6
:1020F00071F09093770180937601E0917A01F091ED
:102100007B01309721F00084F185E02D099408953A
:1021100008950C9488100E94CF1C0E94D3090E943D
:10212000A01D0C946D0D5F926F927F928F929F9283
:10213000AF92BF92CF92DF92EF92FF920F931F93D5
:10214000CF93DF93CDB7DEB72A970FB6F894DEBFF3
:102150000FBECDBF0E94370A9DE7A92E91E0B92E90
:1021600010E000E088248394912C502E802F0E9450
:10217000060B7C01F501C190D1905F01C816D9060C
:1021800009F45EC080910E0281FD0E940F0B90E069
:1021900080E0CE24DF243401082E02C0660C771CB8
:1021A0000A94E2F7960126213721232B09F443C034
:1021B0008E835F82E620F72081E0EF2809F480E03B
:1021C00088870E94D81C8160782F9A8789874E81E2
:1021D0005F8168858A850E944D11000F111FF801EB
:1021E000E358FE4F80819181682679267182608252
:1021F0000E9423200E943A1090917C018917B9F126
:102200000E943A1080937C012A960FB6F894DEBFA4
:102210000FBECDBFDF91CF911F910F91FF90EF9037
:10222000DF90CF90BF90AF909F908F907F906F90F6
:102230005F900C946D0701968D30910509F0ABCF3E
:102240000F5F1F4F0430110509F08FCF8FEF898387
:102250008A831B820E94D81C8160782F9D838C8387
:1022600049815A816B818D810E944D11C1CF2A967F
:102270000FB6F894DEBF0FBECDBFDF91CF911F9197
:102280000F91FF90EF90DF90CF90BF90AF909F9015
:102290008F907F906F905F900895CF93DF93CDB72D
:1022A000DEB72B970FB6F894DEBF0FBECDBF4F83BE
:1022B000588769877A878B871E821D8285E0FE0199
:1022C0003796DE01119601900D928A95E1F74981CA
:1022D0005A816B817C818D819E812B960FB6F894FB
:1022E000DEBF0FBECDBFDF91CF910C94CA178823FC
:1022F00009F4D8C0823871F40E943A1081FDD2C02E
:1023000089E30E941F1B0E94E71B89E30E945C1B5C
:102310000C94E71B833859F40E943A1080FDC2C028
:1023200083E50E941F1B0E94E71B83E5EFCF8438E3
:1023300059F40E943A1082FDB5C087E40E941F1B29
:102340000E94E71B87E4E2CF9CEF980F913A18F4C4
:102350000E941F1BDDCF90E2980F983050F48770D9
:1023600091E001C0990F8A95EAF7892F0E949E1B80
:10237000CFCF9BE5980F933070F4853A31F0863AD1
:1023800039F083E890E00C945C1081E890E0FBCF9A
:1023900082E890E0F8CF98E5980F953108F082C078
:1023A000883A09F440C0893A09F440C08A3A09F4ED
:1023B00040C08B3A09F440C08C3A09F440C08B3BD2
:1023C00009F440C08C3B09F440C08D3A09F440C088
:1023D000803B09F440C08E3A09F440C08F3A09F4BA
:1023E00040C0813B09F440C0823B09F440C0833BBC
:1023F00009F440C0843B09F440C0853B09F440C067
:10240000863B09F440C0873B09F440C0883B09F48F
:1024100040C0893B09F440C08A3B09F440C090E0C9
:1024200080E00C94721082EE90E0FBCF89EE90E099
:10243000F8CF8AEE90E0F5CF85EB90E0F2CF86EB17
:1024400090E0EFCF83EB90E0ECCF84EB90E0E9CF2E
:1024500087EB90E0E6CF8CEC90E0E3CF8DEC90E062
:10246000E0CF83E891E0DDCF8AE891E0DACF82E93E
:1024700091E0D7CF84E991E0D4CF81E292E0D1CF4F
:1024800083E292E0CECF84E292E0CBCF85E292E08D
:10249000C8CF86E292E0C5CF87E292E0C2CF8AE25F
:1024A00092E0BFCF0895882309F44BC0823871F4BD
:1024B0000E943A1081FF45C089E30E941F1B0E94C1
:1024C000E71B89E30E945C1B0C94E71B833859F4DB
:1024D0000E943A1080FF35C083E50E941F1B0E94B6
:1024E000E71B83E5EFCF843859F40E943A1082FF4E
:1024F00028C087E40E941F1B0E94E71B87E4E2CFED
:102500009CEF980F913AF0F290E2980F983050F4C7
:10251000877091E001C0990F8A95EAF7892F0E9490
:10252000A41BD2CF9BE5980F933020F490E080E07D
:102530000C945C10885A853120F490E080E00C9473
:1025400072100895882321F00E949E1B0C94E71BB3
:102550000895882321F00E94A41B0C94E71B089582
:102560008F929F92AF92BF92DF92EF92FF920F9362
:102570001F93CF93DF937C01D62FC72FFC010581DA
:1025800002950F70128111110E94BD1B0E94181B31
:10259000D82E882371F0112321F180E28D0F88302D
:1025A00000F182E00E94021B0E94181B91E0D82ECD
:1025B000D926EC2FE295EF70F0E0EF51FD4E0C9430
:1025C0001529F312F312431343138513A113201398
:1025D0002013AC13201344144414B71420132013F5
:1025E000C014D12CE6CF0C2F0F70C07F11F00295D4
:1025F000007F1123A9F0002359F080E28D0F88306D
:1026000010F0D11109C0802F0E949E1B0E94E71B71
:102610008D2F0E94771114C0802F0E94AF1BF6CF20
:102620008D2F0E945312002359F080E28D0F8830C5
:1026300010F0D11124C0802F0E94A41B0E94E71B20
:10264000DD2009F4A4C10E94F51A80FDA0C1F701A4
:1026500012820E94EF1A0E946919C7010E94D314C6
:102660000E94EF1ADF91CF911F910F91FF90EF9091
:10267000DF90BF90AF909F908F900C948A19802F1D
:102680000E94B51BDBCFFC2FFF70BF2EC07FC03276
:1026900019F0B29480EFB822DD2369F0D13029F12E
:1026A000112369F1002359F0F701858180FFB0CF34
:1026B0008F70858304C0112361F0011104C08B2D3C
:1026C0000E94A212BDCF8B2D0130D1F70E94D11BE9
:1026D000B7CF011106C00E94D41B8B2D0E94A912F6
:1026E000AFCF013009F4ACCFF6CF112321F0063083
:1026F00008F0A6CFE4CF053008F0A2CFEECF00233C
:1027000061F38D2F0E9453129BCF8C2F8695869557
:10271000837069F0813009F093CF8D2F9C2F9370D7
:10272000111102C090E080E00E94721089CF8D2FBD
:102730009C2F9370111102C090E080E00E945C1009
:102740007FCF8D2F112329F00E942C1F0E9418206B
:1027500077CF0E94941FFACF8C2F837009F047C067
:1027600011116ECF2D2F229526952770220F220F43
:102770006D2F6F70862E912CB12CA12C022E04C0CF
:10278000880C991CAA1CBB1C0A94D2F760E070E06C
:10279000CB01D4FF0FC06FE070E080E090E004C098
:1027A000660F771F881F991F2A95D2F7609570953D
:1027B00080959095C695C695C370C23051F080F44F
:1027C000682979298A299B29C13071F00E94121940
:1027D00037CF682979298A299B290E942E1930CF61
:1027E0000E941219C501B4010E94F61829CF8695DE
:1027F000112311F08C2F8170882309F421CF2D2F04
:10280000229526952770220F220F6D2F6F70862E2E
:10281000912CB12CA12C022E04C0880C991CAA1C4E
:10282000BB1C0A94D2F760E070E0CB01D4FF0FC06C
:102830006FE070E080E090E004C0660F771F881FB3
:10284000991F2A95D2F76095709580959095C695B9
:10285000C695C370C23051F080F4682979298A295D
:102860009B29C13071F00E94EC19EACE68297929C0
:102870008A299B290E94081AE3CE0E94EC19C501FF
:10288000B4010E94D019DCCEE0E2ED0FE53108F092
:1028900062C0F0E0E25BFB4E0C94152963146314F4
:1028A0006314631463146314631463146314631470
:1028B00063146314631463146314631470147E1438
:1028C00085148C149614DF708C2F8F71112321F0D6
:1028D0000E9469198D2FF4CE0E948A198D2FFECE89
:1028E000112341F0053008F0ABCE8C2F8F710E9480
:1028F000AF19A6CE063008F0A3CEF7CF8C2F8F717C
:10290000112339F00E9469199BCE8C2F8F711123EE
:10291000C9F30E948A1994CE112329F08C2F8F714C
:102920000E9454198DCE0E944A198ACE112349F073
:10293000CF718C2F0E94691963E08C2F0E94F91AC5
:102940007FCE81E00E94021B023008F479CE82E043
:102950000E94021B75CE112329F0011159CE8C2F34
:102960008F71D0CF0111CDCE8C2F8F71D2CF4C2F44
:102970004F706D2FC7010E94BB050E94731860CE77
:102980004C2F4F706D2FC7010E946F0759CEDF91FA
:10299000CF911F910F91FF90EF90DF90BF90AF907C
:1029A0009F908F9008950F931F93CF93DF93EC0127
:1029B000988189812B813C81232B39F08F3F19F439
:1029C00081E09F3F19F080E001C081E080FD17C0E9
:1029D000CE010E94D405882391F0688179818A8193
:1029E0000E94CB1A8C010E94241A0E94EB18B80195
:1029F000CE01DF91CF911F910F910C94B012DF9116
:102A0000CF911F910F9108950E94BD1B0E94CE1B74
:102A10000E94901B0E94E71B0E94C5200E94182064
:102A200090E080E00E945C1090E080E00C947210D6
:102A30000E94AC1B0C9404150E94C11AE92FE29568
:102A4000EF70E250EE30E0F4F0E0E75DFA4E0C9407
:102A500015293715371540154015421540154015F5
:102A60004015371537154715401540154715803F58
:102A700019F020F4803E20F481E00895843FE1F3D2
:102A800080E00895803EC0F3813FD1F7F5CF93FBFE
:102A9000882780F90895CF93DF9300D000D01F924C
:102AA000CDB7DEB70F900F900F900F900F90DF9182
:102AB000CF910895CF93DF9300D000D000D0CDB751
:102AC000DEB726960FB6F894DEBF0FBECDBFDF91FE
:102AD000CF9108951F93CF93DF93C091860116E0A5
:102AE000809187018C1304C0DF91CF911F910895CD
:102AF000D0E01C9FF0011D9FF00D1124E857FE4F00
:102B00004081518162817381848195810E945A152F
:102B10002196C770E5CF4091B8015091B9016091FD
:102B2000BA017091BB018091BC019091BD010C94E0
:102B30005A151F93CF93DF938091BD01807FD1F40D
:102B40008091BA018823B1F080918601D0918701EC
:102B5000B091B801C091B9014091BB015091BC0145
:102B6000A1E0BF3F09F0A0E0BA016095709516E0C2
:102B7000D81304C0DF91CF911F91089521E0411532
:102B8000510521F02A2FCF3F09F020E090E020FDF1
:102B900038C0189FF001199FF00D1124E857FE4F1F
:102BA00021812C132EC020812B132BC022812111B7
:102BB00028C0238134812417350700F1241B350BED
:102BC000283C3105F0F42091BD012F702061209345
:102BD000BD0126E0289FF001299FF00D1124E35745
:102BE000FE4F80818F708061808388EB91E00E942E
:102BF000D314DF91CF911F910C946A15260F371FC4
:102C0000DFCF01968770B4CFAF92BF92CF92DF92A1
:102C1000EF92FF920F931F93CF93DF93CDB7DEB761
:102C200061970FB6F894DEBF0FBECDBF8C0185E073
:102C3000F801DE011D9601900D928A95E1F7D80109
:102C40004C9111965C9111971296EC903091B801CD
:102C50006091B9018091BB019091BC0121E0009786
:102C600031F06F3F19F421E03F3F09F020E0B22F2F
:102C7000B170BB2E20FD80C1F801C380D480A0902C
:102C8000BA01AA2009F427C1C816D906D0F1D60185
:102C9000A81BB90BCD01FF24F394883C910508F0E3
:102CA000F12C8091BD01982F907FFF2009F4CAC0BC
:102CB000911187C0FE2C651329C0341327C0E11081
:102CC00025C08F7080618093BD010E948B1588EBB9
:102CD00091E00E94D3148091BD01F80185838F2D6E
:102CE00061960FB6F894DEBF0FBECDBFDF91CF91D6
:102CF0001F910F91FF90EF90DF90CF90BF90AF901A
:102D00000895809590958C0D9D1DC5CF81E0CD28AF
:102D100031F05F3F19F481E04F3F09F080E080FD22
:102D200024C081E08E25F82FF170DF2E80FF3FC098
:102D3000809186012091870136E0821318C04D876B
:102D40005E878D859E850E94C11A292F22952F703E
:102D5000223008F1243030F59F7009F1D801159622
:102D60009C91907FE1F4FB2CBACF80E0DCCF90E027
:102D7000389FF001399FF00D1124E857FE4F618113
:102D8000561306C06081461303C062816E110FC0E6
:102D900001968770D2CF9F7011F0882321F3805E57
:102DA000883008F3C8010E94D314BD2CDCCFEE207C
:102DB00009F495CF8091BD0181608093BD01F12C14
:102DC0008ECF651312C0341310C0E1100EC0F8018D
:102DD0008583C8010E94D31486E0F801A8EBB1E016
:102DE00001900D928A95E1F741C04D875E878D85F0
:102DF0009E850E941C15882309F4C8C0EE2009F4A2
:102E0000C5C08091BD01803270F02091B801309131
:102E1000B90138872F831986DB86CA868C87CE0155
:102E200007960E94D31486E0F801A8EBB1E0019068
:102E30000D928A95E1F70E9499150E948B15FF2447
:102E4000F3944DCF911115C07C2DD98AC88A6E2D6F
:102E500089890E944B1588EB91E00E94D31486E08B
:102E6000E8EBF1E0DF011D928A95E9F70E948B15EE
:102E700036CF651312C0341310C0E1100EC0F80134
:102E80008583C8010E94D314E8EBF1E086E0DF01FE
:102E90001D928A95E9F7FA2C22CF4D875E878D85A2
:102EA0009E850E941C15882309F470C0EE2009F449
:102EB0006DC08091BD01803208F4B5CF2091B8017A
:102EC0003091B9013A8329831B82DD82CC828E83C3
:102ED000CE010196A6CFC816D90638F1F601E81B37
:102EE000F90BCF01F12C883C910508F03DC0FE2C78
:102EF000EE2009F44BC0651326C0341324C0809122
:102F0000BD0180FD17C0982F907FA1F0D8011596C4
:102F10008C931597903F09F45CCF982F907F905F2A
:102F20008F70892B15968C9354CF809590958C0D2E
:102F30009D1DD8CF86E0F801A8EBB1E001900D927D
:102F40008A95E1F7CCCE4D875E878D859E850E9460
:102F50001C15811168CF8091BD0181608093BD01F6
:102F6000C8010E94D314BBCE7C2DD98AC88A6E2D8D
:102F700089890E944B1573CFEE2041F04D875E8703
:102F80008D859E850E941C1581114DCFC8010E9420
:102F9000D31455CF1F93CF93DF93CDB7DEB72C97C4
:102FA0000FB6F894DEBF0FBECDBF4F835887698739
:102FB0007A878B879C87CE0107960E940416882308
:102FC00009F442C09F8188852A853B85232B39F0EF
:102FD0008F3F19F481E09F3F19F080E001C081E04C
:102FE00080FD08C04F81588569857A858B859C85D1
:102FF0000E945A1516E080918601909187018917E9
:1030000009F467C0819FC001112488579E4F0E9418
:103010000416882309F45DC0E09186011E9FF0012B
:103020001124E857FE4F4081518162817381848170
:1030300095810E945A158091860190E001968770D3
:10304000992780938601D7CF86E0FE013796DE016F
:10305000119601900D928A95E1F79F8188852A85C6
:103060003B85232B39F08F3F19F481E09F3F19F006
:1030700080E001C081E080FDBDCF2091870130E07C
:10308000C901019687709927409186014817190652
:1030900099F096E0929FD001939FB00D1124A8570C
:1030A000BE4FFE01319601900D929A95E1F7809303
:1030B00087010E946A159ECF0E9418151092870101
:1030C0001092860186E0E8EBF1E0DF011D928A951F
:1030D000E9F72C960FB6F894DEBF0FBECDBFDF9197
:1030E000CF911F910895EF92FF920F931F93CF936B
:1030F000DF938C01892B81F0F12CEE24E394E8011D
:103100002196F8018491843770F4843008F05FC010
:103110008130B1F08230A1F1DF91CF911F910F91F9
:10312000FF90EF900895853709F44CC008F43DC036
:103130009CE7980F903780F78F770E94531249C011
:103140000E5F1F4FFE01849190E2980F983060F45B
:103150008770FE2D01C0FF0F8A95EAF78F2F0E941E
:10316000C01B0E94E71B02C00E9477118F2D815067
:1031700030F2EFE9FFE03197F1F700C00000F7CF40
:103180000E5F1F4FFE01849190E2980F983050F42B
:103190008770FE2D01C0FF0F8A95EAF78F2F0E94DE
:1031A000C61BDFCF0E945312E1CF0E5F1F4FFE01FF
:1031B000C491C150D8F28FE99FE00197F1F700C0A8
:1031C0000000F7CF0E5F1F4FFE01F490CFCF0E949B
:1031D00077118E01CBCF08956093E5017093E601DE
:1031E0008093E7019093E8010C9404150F931F93CB
:1031F0000091E5011091E6012091E7013091E8018D
:10320000DC01CB01802B912BA22BB32B8093E5010A
:103210009093E601A093E701B093E8011F910F910D
:103220000C9404150F931F930091E5011091E60192
:103230002091E7013091E801DC01CB01802391234B
:10324000A223B3238093E5019093E601A093E701C5
:10325000B093E8011F910F910C9404150F931F93E5
:103260000091E5011091E6012091E7013091E8011C
:10327000DC01CB0180279127A227B3278093E501AA
:103280009093E601A093E701B093E8011F910F919D
:103290000C9404151092E1011092E2011092E301E6
:1032A0001092E4010C94041541E050E060E070E0FD
:1032B00004C0440F551F661F771F8A95D2F74093AD
:1032C000E1015093E2016093E3017093E4010C94F7
:1032D000041541E050E060E070E004C0440F551F69
:1032E000661F771F8A95D2F78091E1019091E201E4
:1032F000A091E301B091E401842B952BA62BB72B71
:103300008093E1019093E201A093E301B093E40183
:103310000C94041541E050E060E070E004C0440FFC
:10332000551F661F771F8A95D2F740955095609577
:1033300070958091E1019091E201A091E301B0913B
:10334000E40184239523A623B7238093E10190937E
:10335000E201A093E301B093E4010C94041541E071
:1033600050E060E070E004C0440F551F661F771FF7
:103370008A95D2F78091E1019091E201A091E30159
:10338000B091E40184279527A627B7278093E10110
:103390009093E201A093E301B093E4010C9404152F
:1033A0000F931F930091E1011091E2012091E3013D
:1033B0003091E401DC01CB01802B912BA22BB32BAC
:1033C0008093E1019093E201A093E301B093E401C3
:1033D0001F910F910C9404150F931F930091E1011D
:1033E0001091E2012091E3013091E401DC01CB0175
:1033F00080239123A223B3238093E1019093E201E0
:10340000A093E301B093E4011F910F910C94041574
:103410000F931F930091E1011091E2012091E301CC
:103420003091E401DC01CB0180279127A227B3274B
:103430008093E1019093E201A093E301B093E40152
:103440001F910F910C94041508952DE0929F800D0B
:103450001124982F977071E001C0770F9A95EAF7C1
:1034600086958695869525E0829FC001112450E0BF
:1034700040E0A62FB0E0FC01E40FF51FE254FE4F40
:1034800060819D01042E02C0369527950A94E2F7CB
:103490002170219526272723262720834F5F5F4F02
:1034A0004530510541F708952DE0929F800D11247C
:1034B000982F977086958695869525E0829FA00126
:1034C000112470E060E080E0FA01E60FF71FE2549B
:1034D000FE4F208130E0092E02C0369527950A94D0
:1034E000E2F721703327062E01C0220F0A94EAF773
:1034F000822B6F5F7F4F6530710531F70895BF9262
:10350000CF92DF92EF92FF920F931F93CF93DF93AF
:103510008C01C090E101D090E201E090E301F090D5
:10352000E4018091E5019091E601A091E701B0915D
:10353000E801C82AD92AEA2AFB2ACFE1D0E0BC2E2A
:10354000D701C6010C2E04C0B695A795979587950F
:103550000A94D2F780FD0EC0219788F7B12C8B2DED
:10356000DF91CF911F910F91FF90EF90DF90CF905F
:10357000BF900895B8018C2F0E948C07019761F3CA
:10358000EECFCF93DF93EC010E947F1ABE01DF9153
:10359000CF910C948C071F93CF93DF93EB01909105
:1035A0008501992331F0CB01DF91CF911F910C94CC
:1035B000C11A882379F0CB010E947F1A182F682F37
:1035C000CE010E94251ABE01812FDF91CF911F915C
:1035D0000C948C07CB010E94541A182FF4CF8091C1
:1035E000E90185958595859508958091E901877014
:1035F000089598E0899F90011124622B6093E9015E
:103600000C9469199091E901809589238093E901CF
:10361000282F277061F4282F082E000C330B9217E7
:10362000130629F08595859585950C948A1908953A
:103630009091E901977081E009F480E008959091FC
:1036400013019923E1F090916B0297FF18C0E82FC6
:10365000E695E695E695EF3139F12091010130913B
:103660000201E20FF32FF11D877021E030E001C06D
:10367000220F8A95EAF78181822B81830895209118
:10368000010130910201F90132969FEF40E0519122
:10369000851751F09F3F19F4511101C0942F4F5FCE
:1036A0004E31A9F79F3F09F40895290F311D97FD69
:1036B0003A95F90182830895909113019923F1F0CD
:1036C00090916B0297FF1AC0E82FE695E695E69574
:1036D000EF3129F12091010130910201E20FF32F26
:1036E000F11D282F277081E090E001C0880F2A95F6
:1036F000EAF78095918189238183089520910101C2
:1037000030910201F9013296205E3F4F9191891369
:1037100003C0DF0111971C92E217F307B9F7089570
:1037200081E090E0E0910101F0910201E80FF91FC2
:103730001082019680329105A9F7089590910D02AB
:10374000892B80930D020895982F909580910D02FA
:10375000892380930D02089510920D02089590918F
:103760000C02892B80930C020895982F90958091DC
:103770000C02892380930C02089510920C02089584
:1037800090910B02892B80930B020895982F9095AE
:1037900080910B02892380930B02089510920B02F3
:1037A00008958093EA0108951092EA010895209106
:1037B000010130910201F9013196205E3F4F80E016
:1037C000919191118F5FE217F307D1F70895E0917E
:1037D0000101F091020180910D028083E0910101CD
:1037E000F0910201808190910C02892B8083E091FD
:1037F0000101F0910201808190910B02892B80835D
:103800009091EA01992361F0E0910101F0910201A8
:103810008081892B80830E94D71B81111092EA013D
:1038200080910101909102010C9446106DEE7EEFA3
:1038300090E080E00E944D2960E082E090E00E94EC
:103840002F2960E083E090E00E942F2960E084E06F
:1038500090E00E942F2960E085E090E00E942F29EF
:1038600040E050E0BA0188E090E00C94412990E0FB
:1038700080E00E94292921E08D3E9E4F09F020E042
:10388000822F089582E090E00C941B29682F82E03B
:1038900090E00C942F2983E090E00C941B29682F72
:1038A00083E090E00C942F2984E090E00C941B2995
:1038B000682F84E090E00C942F298091710284306D
:1038C00039F110920F0288E190E020E40FB6F894ED
:1038D000A895809360000FBE2093600080E00E9456
:1038E0006D0783B7817F846083BF83B7816083BFA7
:1038F0007894889583B78E7F83BF0FB6F894A89588
:1039000080916000886180936000109260000FBE1B
:10391000089508950895CF930E94891C0E94370A44
:103920000E948A1CC0E08C2F0E94060B892B31F468
:10393000CF5FC430C1F780E0CF91089581E0FCCF24
:103940000E9418150E943A100C946D071F920F9256
:103950000FB60F9211248F939F93AF93BF938091D3
:103960000F02811113C08091670290916802A091AB
:103970006902B0916A024196A11DB11D8093670250
:1039800090936802A0936902B0936A02BF91AF91CD
:103990009F918F910F900FBE0F901F90189582E00E
:1039A00084BD93E095BD9AEF97BD80936E00089516
:1039B0002FB7F8948091670290916802A0916902F4
:1039C000B0916A022FBF0895CF92DF92EF92FF92DB
:1039D0000F931F932FB7F89440916702509168029C
:1039E0006091690270916A022FBF6A017B01EE2427
:1039F000FF248C0130E020E0C016D106E206F30679
:103A000050F0481B590BCA011F910F91FF90EF9086
:103A1000DF90CF90089541505109F3CF1F920F923C
:103A20000FB60F9211248F939F93AF93BF93809102
:103A3000670290916802A0916902B0916A020196B2
:103A4000A11DB11D8093670290936802A093690243
:103A5000B0936A02BF91AF919F918F910F900FBE6B
:103A60000F901F9018950E94C124F8942FEF87EAB9
:103A700091E6215080409040E1F700C0000087E0CF
:103A800090EBDC0180937A0290937B02A0937C02FE
:103A9000B0937D0288E19CE00FB6F894A8958093DE
:103AA00060000FBE90936000FFCFAF92BF92CF92A5
:103AB000DF92EF92FF920F931F93CF93C0E0CC243D
:103AC000C394D12CE82EF12C8C2F0E94060B5C01A4
:103AD00010E000E0C601002E02C0880F991F0A9472
:103AE000E2F78A219B21892B99F40F5F1F4F0D303C
:103AF000110581F7CF5FC43039F780E0CF911F9176
:103B00000F91FF90EF90DF90CF90BF90AF9008950E
:103B1000602F7C2F80E00E947007E816F90629F7D5
:103B200081E0ECCFCF93C82F8CE20E94551D8823F3
:103B300021F08C2FCF910C94551D80E0CF910895EA
:103B4000CF930E94371C811102C00E94161CC5E64B
:103B500008C00E94370A8FE39CE90197F1F700C083
:103B60000000C150B1F789E20E94921D8111EFC09F
:103B70008AE20E94921D81110E94161C85E00E941B
:103B8000921D81110E94331D0E94421C80930E02DF
:103B900087E00E94921D882371F08BE10E94921DA4
:103BA000882309F4B1C090910E02892F8D7F91FF77
:103BB000826080930E0280910E020E94461C0E9439
:103BC000541C90E090936C0280936B0280EE0E94F4
:103BD000921D882341F090916B02892F8E7F90FF78
:103BE000816080936B0289E30E94921D882341F0DB
:103BF00090916B02892F8D7F91FF826080936B0281
:103C000082EE0E94921D882341F090916B02892FD1
:103C10008B7F92FF846080936B0286EE0E94921DE0
:103C2000882341F090916B02892F877F93FF8860F2
:103C300080936B0283EE0E94921D882341F0909145
:103C40006B02892F8F7E94FF806180936B0285E3E6
:103C50000E94921D882341F090916B02892F8F7DE5
:103C600095FF806280936B0281E30E94921D8823FE
:103C700041F090916B02892F8F7B96FF8064809337
:103C80006B0281E10E94921D882341F090916B02AA
:103C9000892F97FB87F9805880936B0280916B0284
:103CA0000E94581C87E20E94921DC82F8EE10E943C
:103CB000921D8111C2608FE10E94921D8111C4602A
:103CC00080E20E94921D8111C86081E20E94921DD3
:103CD0008111C06182E20E94921D8111C06283E263
:103CE0000E94921D8111C06484E20E94921D88236B
:103CF00041F1C0688C2F0E944F1C6C2F70E090E047
:103D000080E0CF910C94EC188EE00E94921D8823E5
:103D100039F090910E02892F8B7F92FF846049CFFA
:103D200080E10E94921D90910E02882329F0892F34
:103D3000877F93FF88603DCF892F8E7F90FF8160C2
:103D400038CFC111D7CF0E944B1C682FD7CFCF914E
:103D500008958091120280FF12C06091060185E0F3
:103D6000689FB001112475956795759567956038C2
:103D70007105A8F561157105A1F1862F089581FFE0
:103D800009C06091060185E0689FB0011124759516
:103D90006795EDCF82FF07C06091060185E0689FBF
:103DA000B0011124E4CF209113022223A9F09091B5
:103DB00005016091060185E0689FB0011124291773
:103DC000B0F6269FA001279F500D1124692F70E0A7
:103DD000CA010E940129CBCF65E070E0CECF8FE70A
:103DE000089581E008958091120280FF0CC06091D7
:103DF000040170E075956795759567956115710576
:103E000049F1862F089581FF06C06091040170E09A
:103E100075956795F3CF6091040182FD0BC0909179
:103E200013029923A1F06091030180910401961778
:103E300038F0682F70E06038710500F38FE708955F
:103E4000899FC001112470E00E940129F4CF61E034
:103E500070E0D7CF81E00895803F31F40E94A91E21
:103E60008195809316020895813F19F40E94A91E3E
:103E7000F8CF823F31F40E94A91E819580931502EC
:103E80000895833F19F40E94A91EF8CF893F29F4B1
:103E90000E94F31E8093170208958A3F21F40E9426
:103EA000F31E8195F7CF8B3F31F40E94F31E81956D
:103EB0008093180208958C3F19F40E94F31EF8CFE6
:103EC000843F31F48091140281608093140208953C
:103ED000853F21F4809114028260F7CF863F21F460
:103EE000809114028460F1CF873F21F48091140205
:103EF0008860EBCF883F21F4809114028061E5CF88
:103F00008D3F31F4809112028160809312020895F6
:103F10008E3F21F4809112028260F7CF8F3FB9F774
:103F2000809112028460F1CF803FC1F4809116022B
:103F300087FD109216028091150281110EC08091AA
:103F4000160281110AC080911702811106C080916A
:103F50001802811102C0109213020895813F29F4C2
:103F60008091160218162CF3E6CF90911502823F2D
:103F700029F497FFE0CF10921502DDCF833F19F4AB
:103F80001916CCF3D8CF893F39F48091170218164F
:103F900094F610921702CFCF8A3F29F4809117022E
:103FA00087FFC9CFF6CF8B3F39F48091180287FF86
:103FB000C2CF10921802BFCF8C3F29F48091180213
:103FC0001816BCF3B8CF843F31F4809114028E7F71
:103FD00080931402B0CF853F21F4809114028D7F2D
:103FE000F7CF863F21F4809114028B7FF1CF873F7A
:103FF00021F480911402877FEBCF883F21F48091D8
:1040000014028F7EE5CF8D3F31F4809112028E7FB6
:104010008093120290CF8E3F21F4809112028D7F07
:10402000F7CF8F3F09F087CF809112028B7FF0CFBF
:1040300084E192E00E9451100E94D81C90931102DA
:104040008093100208951F93CF93DF938091100205
:10405000909111020E94E41CAC01909113022091F6
:10406000070130E0911106C0209108018AE0289FE5
:10407000900111244217530780F080911502C091DE
:10408000160210911702D091180281110AC0C111B5
:1040900078C0111176C0D11174C0DF91CF911F91FA
:1040A00008959F3F19F09F5F90931302181624F410
:1040B0000E94A91E809315028091150287FF05C0FA
:1040C0000E94A91E8195809315021C1624F40E945B
:1040D000A91E809316028091160287FF05C00E94D8
:1040E000A91E81958093160260911502662331F115
:1040F000C0911602CC2311F1062E000C770B880B11
:10410000990B0E94F42723E333E343E35FE30E9428
:1041100058280E94BC27609315026C2FCC0F770B98
:10412000880B990B0E94F42723E333E343E35FE317
:104130000E9458280E94BC2760931602111624F48E
:104140000E94F31E809317028091170287FF05C01B
:104150000E94F31E8195809317021D1624F40E947D
:10416000F31E809318028091180287FF05C00E94F9
:10417000F31E819580931802DF91CF911F910C94CB
:1041800018209F3F09F08FCFA0CF85E0E4E1F2E057
:10419000DF011D928A95E9F7109213021092120224
:1041A0000895809139020895CF93DF9300D01F9234
:1041B000CDB7DEB79C0180917102843019F593E090
:1041C00099833B832A839093E9008FEF9091E800D5
:1041D000815095FD06C095ED9A95F1F7000081118B
:1041E000F5CF8091E80085FF0DC050E040E063E02E
:1041F00070E0CE0101960E9431238091E8008E7715
:104200008093E8000F900F900F90DF91CF91089569
:10421000CF93DF9300D01F92CDB7DEB7209171020C
:10422000243031F522E02983805891099B838A83C9
:1042300083E08093E9008FEF9091E800815095FD35
:1042400006C095ED9A95F1F700008111F5CF8091A8
:10425000E80085FF0DC050E040E063E070E0CE0173
:1042600001960E9431238091E8008E778093E800C8
:104270000F900F900F90DF91CF9108959C01809146
:1042800071028430F9F482E08093E9009FEF80911D
:10429000E800915085FD06C085ED8A95F1F7000094
:1042A0009111F5CF8091E80085FF0CC050E040E00F
:1042B00065E070E0C9010E9431238091E8008E77AB
:1042C0008093E8000895CF93DF93EC018091710211
:1042D0008430F1F4909113019923E9F090916B02ED
:1042E00097FF19C08093E9008FEF9091E80081500B
:1042F00095FD06C095E19A95F1F700008111F5CF83
:104300008091E80050E040E060E270E085FD1AC076
:10431000DF91CF91089581E08093E9008FEF909134
:10432000E800815095FD06C095ED9A95F1F70000E3
:104330008111F5CF8091E80085FFEACF50E040E0A1
:1043400068E070E0CE010E9431238091E8008E7712
:104350008093E80080E2FE01A9E1B2E001900D92B5
:104360008A95E1F7D5CF80917002811109C00E9432
:10437000C1240E941E258091E20084608093E200A7
:104380000895109270020895089508950C94A01C49
:1043900042E061EC81E00E943F2442E061EC82E077
:1043A0000E943F2442E061EC83E00E943F2442E20D
:1043B00061EC84E00C943F2480917302833009F413
:1043C00055C030F4813071F1823009F491C0089504
:1043D0008A3009F47DC08B3009F463C0893009F05C
:1043E00044C080917202813209F03FC08091760210
:1043F00090917702009711F00397B9F58091E8004A
:10440000877F8093E8008091E80082FF2AC0809136
:10441000F100809339028091E8008B778093E80067
:104420000C94732480917202813AF9F48091E8002F
:10443000877F8093E8008091760290917702892BA4
:1044400061F460E289E192E070E00E948023809153
:10445000E8008B778093E800089560E090E080E0CA
:10446000F3CF809171028111CECF089580917202B5
:10447000813AD9F78091760290917702892BA9F73A
:104480008091E800877F8093E8008091E80080FFBA
:10449000FCCF809113018093F1008091E8008E772A
:1044A000BDCF80917202813201F7809176029091A6
:1044B0007702892BD1F68091E800877F8093E8000E
:1044C0000E94732480917402809313010C94181538
:1044D00080917202813249F68091E800877F809353
:1044E000E8000E9473248091750280933A02089537
:1044F00080917202813A09F0B8CF8091E800877FFD
:104500008093E8008091E80080FFFCCF80913A0220
:10451000C2CF84B7877F84BF0FB6F894A8958091E7
:104520006000886180936000109260000FBE80E898
:1045300080936100109261000E9489100E94C12442
:104540000E941E258091E20084608093E2007894AE
:104550000E94A0270E948B1089E091E00E943510F4
:1045600080917102853029F00E9493100E94021000
:10457000F7CF0E945D1C80916F02882389F30E940F
:104580008B1C882369F30E941B23EACF292F332732
:104590002330310579F158F421303105F1F0223022
:1045A000310519F190E080E030E020E01AC02132BE
:1045B000310599F122323105A9F7643098F770E09E
:1045C000FB01EE0FFF1FE75DFE4F208131816B5D28
:1045D0007E4FFB01808190E004C082E190E026EDF7
:1045E00039E0FA013183208308958DE690E029E6D1
:1045F00039E0F7CF99278130910561F028F00297D3
:1046000089F6E9E3F9E002C0E5E6F9E0849190E09B
:104610009F01E7CFEDE4F9E0F9CF643008F0C2CFB5
:10462000E62FF0E0EE0FFF1FEF5CFE4F208131819F
:1046300089E090E0D6CF80E189BD82E189BD09B4EF
:1046400000FEFDCF8091D8008F7D8093D8008091AF
:10465000E00082608093E0008091E00081FDFCCF6B
:104660000895AF92BF92CF92DF92FF920F931F9364
:10467000CF93DF936C01EB018A010E949224F82E04
:10468000811123C00115110539F0F8018081918154
:10469000C81BD90BC80ED91EB12CA12C2097A9F08C
:1046A0008091E80085FD22C08091E8008E7780939C
:1046B000E80001151105A1F0F80180819181A80E93
:1046C000B91EB182A08285E0F82E8F2DDF91CF91A7
:1046D0001F910F91FF90DF90CF90BF90AF90089502
:1046E0000E9492248823D1F2F82EEFCFF601819117
:1046F0006F018093F1002197FFEFAF1ABF0ACECF71
:10470000FC01809178029091790286179707A0F0BA
:104710006115710529F49091E8009E779093E80067
:1047200090E06115710551F4911108C08091E80085
:1047300082FF35C080E00895BC01F2CF8091710204
:104740008823C9F18530C9F18091E80083FD31C02B
:104750008091E80082FDEACF8091E80080FFE1CF00
:104760002091F3008091F200322F282F61157105FE
:1047700019F02830310558F091E02830310509F062
:1047800090E02091E8002E772093E800CACF819135
:104790008093F100615071092F5F3F4FE7CF809107
:1047A0007102882341F0853041F08091E80083FF59
:1047B000BDCF81E0089582E0089583E00895FC0173
:1047C000809178029091790286179707A0F0611581
:1047D000710529F48091E8008E778093E80090E0DD
:1047E0006115710551F4911108C08091E80082FFB4
:1047F00036C080E00895BC01F2CF80917102882319
:10480000D1F18530D1F18091E80083FD32C08091F3
:10481000E80082FDEACF8091E80080FFE1CF20919F
:10482000F3008091F200322F282F6115710519F0E5
:104830002830310558F091E02830310509F090E03A
:104840008091E8008E778093E800CACF84918093AE
:10485000F1003196615071092F5F3F4FE6CF809193
:104860007102882341F0853041F08091E80083FF98
:10487000BCCF81E0089582E0089583E00895982FE9
:10488000973028F08F708093E90081E0089590932D
:10489000E900242F762F50E0981731F07091EC004A
:1048A0002091ED005091F00021FD02C09F5FE8CF04
:1048B0003091EB003E7F3093EB003091ED003D7F77
:1048C0003093ED003091EB0031603093EB0070934A
:1048D000EC002093ED005093F0002091EE0027FDB6
:1048E000E5CF80E008958091720287FF13C0809128
:1048F000E80082FF06C08091E8008B778093E80093
:1049000004C0809171028111F2CF089580917102EB
:104910008823D9F38091E80080FFF8CF8091E800E8
:104920008E77ECCF2091E4003091E50085E6909100
:10493000EC0090FF06C09091E80090FF06C080E078
:1049400008959091E80092FDFACF90917102992319
:1049500091F0953091F09091EB0095FD10C0409151
:10496000E4005091E5002417350709F381509A01BE
:10497000F1F684E0089582E0089583E0089581E0EF
:1049800008950E942F250E943725E0EEF0E08081F7
:1049900081608083E8EDF0E080818F77808319BCAF
:1049A000A7EDB0E08C918E7F8C9380818F7E808389
:1049B0001092700208950F931F93CF93DF930E947C
:1049C0002F250E943725C8EDD0E088818F77888316
:1049D00088818068888388818F7D888319BC109244
:1049E000710210926D0210926F0210926E0200EE30
:1049F00010E0F80180818B7F8083888181608883CB
:104A000042E060E080E00E943F24E1EEF0E080813F
:104A10008E7F8083E2EEF0E0808181608083808100
:104A200088608083F80180818E7F808388818061A7
:104A30008883DF91CF911F910F910895E8EDF0E009
:104A400080818F7E8083E7EDF0E0808181608083CC
:104A500084E082BF81E0809370020C94DB24E8ED57
:104A6000F0E080818E7F80831092E20008951092A2
:104A7000DA001092E10008951F920F920FB60F9284
:104A800011242F933F934F935F936F937F938F9353
:104A90009F93AF93BF93EF93FF938091E10082FFC9
:104AA0000BC08091E20082FF07C08091E1008B7F04
:104AB0008093E1000E949F278091DA0080FF19C057
:104AC0008091D80080FF15C08091DA008E7F80939E
:104AD000DA008091D90080FF94C080E189BD82E135
:104AE00089BD09B400FEFDCF81E0809371020E9470
:104AF000B3218091E10080FF19C08091E20080FF26
:104B000015C08091E2008E7F8093E2008091E200E8
:104B100080618093E2008091D80080628093D80009
:104B200019BC85E0809371020E94C5218091E1004B
:104B300084FF29C08091E20084FF25C080E189BD07
:104B400082E189BD09B400FEFDCF8091D8008F7D40
:104B50008093D8008091E1008F7E8093E100809166
:104B6000E2008F7E8093E2008091E200816080937A
:104B7000E20080916D02882309F449C084E08093AB
:104B800071020E94C6218091E10083FF29C08091BB
:104B9000E20083FF25C08091E100877F8093E100E0
:104BA00082E08093710210926D028091E1008E7F0D
:104BB0008093E1008091E2008E7F8093E2008091FB
:104BC000E20080618093E20042E060E080E00E94C9
:104BD0003F248091F00088608093F0000E94C421FF
:104BE000FF91EF91BF91AF919F918F917F916F91C5
:104BF0005F914F913F912F910F900FBE0F901F909B
:104C0000189519BC109271020E94C12172CF809137
:104C1000E30087FD02C081E0B2CF83E0B0CF1F92F6
:104C20000F920FB60F9211242F933F934F935F93E0
:104C30006F937F938F939F93AF93BF93CF93EF9394
:104C4000FF93C091E900CF708091EC001092E900D1
:104C50008091F000877F8093F00078940E944B262B
:104C60001092E9008091F00088608093F000C0937A
:104C7000E900FF91EF91CF91BF91AF919F918F91FB
:104C80007F916F915F914F913F912F910F900FBE48
:104C90000F901F9018951F93CF93DF93CDB7DEB77A
:104CA000AA970FB6F894DEBF0FBECDBFE2E7F2E0E1
:104CB0008091F100819322E0EA37F207C9F70E9460
:104CC000DC218091E80083FF42C0809172029091C4
:104CD00073029A3008F03BC0E92FF0E0EE58F94D2E
:104CE0000C9415297C26A026A726A026A726FB26FD
:104CF0001D27A72672277F27803879F0823839F55B
:104D0000809176028F708093E9008091EB0085FBA3
:104D1000882780F91092E90006C080916E02909178
:104D20006F02911182609091E800977F9093E80064
:104D30008093F1001092F1008091E8008E772DC0F1
:104D4000282F2D7F21F48823D1F0823059F18091D2
:104D5000E80083FF0AC08091E800877F8093E80025
:104D60008091EB0080628093EB00AA960FB6F894D6
:104D7000DEBF0FBECDBFDF91CF911F91089580910F
:104D80007402813021F7933009F080E080936F0244
:104D90001092E9008091E800877F8093E8000E94EC
:104DA0007324D5CF809174028111F2CF8091760265
:104DB0008F7069F28093E9002091EB0020FFE8CF2B
:104DC000933031F48091EB0080628093EB00E0CF70
:104DD0009091EB0090619093EB0021E030E001C0F6
:104DE000220F8A95EAF72093EA001092EA00809158
:104DF000EB008860EACF8111AACF109174021F776F
:104E00008091E3008078812B8093E3008091E8001B
:104E1000877F8093E8000E9473248091E80080FFE0
:104E2000FCCF8091E30080688093E30083E0111160
:104E300001C082E0809371028ACF8058823008F0EE
:104E400086CF80917402909175028C3D23E0920789
:104E5000A1F583E08A838AE289834FB7F894DE0163
:104E6000139620E03EE051E2E32FF0E0509357002C
:104E7000E49120FF03C0E295EF703F5FEF708E2F4B
:104E800090E0EA30C0F0C7968D939D932F5F243158
:104E900059F74FBF8091E800877F8093E8006AE26E
:104EA00070E0CE0101960E9480238091E8008B770C
:104EB0008093E8004CCFC096E7CFAE014F5F5F4FC5
:104EC000609176020E94C622BC01892B09F43FCF73
:104ED0009091E800977F9093E80089819A810E94E1
:104EE000DF23E3CF803809F032CF8091E800877F5D
:104EF0008093E80080916D028093F1001DCF8111B5
:104F000026CF90917402923008F021CF8091E80072
:104F1000877F8093E80090936D020E9473248091B4
:104F20006D02882331F084E0809371020E94C821D1
:104F30000ECF8091E30087FDF6CF81E0F5CF089595
:104F4000CF9380917102882399F0C091E900CF70CE
:104F50008091EC0080FD0EC080E0C82B1092E9002B
:104F60008091E80083FD0E944B26CF70C093E9003A
:104F7000CF91089580E8F1CF0E94C3276894B111C2
:104F80000C94522808950E94372888F09F5798F073
:104F9000B92F9927B751B0F0E1F0660F771F881F3E
:104FA000991F1AF0BA95C9F714C0B13091F00E9458
:104FB0005128B1E008950C945128672F782F882745
:104FC000B85F39F0B93FCCF3869577956795B3957F
:104FD000D9F73EF490958095709561957F4F8F4FEE
:104FE0009F4F0895E89409C097FB3EF490958095F3
:104FF000709561957F4F8F4F9F4F9923A9F0F92F9F
:1050000096E9BB279395F695879577956795B7951C
:10501000F111F8CFFAF4BB0F11F460FF1BC06F5F02
:105020007F4F8F4F9F4F16C0882311F096E911C014
:10503000772321F09EE8872F762F05C0662371F035
:1050400096E8862F70E060E02AF09A95660F771F49
:10505000881FDAF7880F9695879597F9089557FD79
:105060009058440F551F59F05F3F71F04795880FD6
:1050700097FB991F61F09F3F79F08795089512166D
:1050800013061406551FF2CF4695F1DF08C0161619
:1050900017061806991FF1CF8695710561050894CA
:1050A0000895E894BB2766277727CB0197F90895E1
:1050B0000E946B280C94DC280E94CE2838F00E94B5
:1050C000D52820F0952311F00C94C5280C94CB28FA
:1050D00011240C9452280E942F2870F3959FC1F33D
:1050E000950F50E0551F629FF001729FBB27F00D96
:1050F000B11D639FAA27F00DB11DAA1F649F6627EB
:10510000B00DA11D661F829F2227B00DA11D621F39
:10511000739FB00DA11D621F839FA00D611D221FF3
:10512000749F3327A00D611D231F849F600D211DD7
:10513000822F762F6A2F11249F5750409AF0F1F05A
:1051400088234AF0EE0FFF1FBB1F661F771F881FC3
:1051500091505040A9F79E3F510580F00C94C5280E
:105160000C9452285F3FE4F3983ED4F386957795EC
:105170006795B795F795E7959F5FC1F7FE2B880F69
:10518000911D9695879597F9089597F99F6780E8FF
:1051900070E060E008959FEF80EC089500240A9489
:1051A0001616170618060906089500240A94121602
:1051B0001306140605060895092E0394000C11F435
:1051C000882352F0BB0F40F4BF2B11F460FF04C0E2
:1051D0006F5F7F4F8F4F9F4F0895AA1BBB1B51E1FD
:1051E00007C0AA1FBB1FA617B70710F0A61BB70B57
:1051F000881F991F5A95A9F780959095BC01CD01FC
:10520000089597FB072E16F4009407D077FD09D078
:105210000E94ED2807FC05D03EF4909581959F4FA4
:105220000895709561957F4F0895EE0FFF1F0590CB
:10523000F491E02D0994F999FECF92BD81BDF89AC1
:10524000992780B50895A6E1B0E044E050E00C94C1
:105250005529A8E1B0E042E050E00C945529262FF2
:10526000F999FECF92BD81BDF89A019700B402165C
:1052700039F01FBA20BD0FB6F894FA9AF99A0FBE0A
:1052800008950396272F0E9430290E942F29252F49
:105290000E943029242F0C9430290196272F0E9438
:1052A00030290C942F29DC01CB01FC01F999FECFA8
:1052B00006C0F2BDE1BDF89A319600B40D9241509E
:0A52C0005040B8F70895F894FFCFAE
:1052CA00FFEB012808140A321ED12063213E21086F
:1052DA0021D42001F4F5F6F7313332363534C69746
:1052EA006693919094404D3639A40A570A210AE8E8
:0A52FA00097B099409AD09C60900FB
:00000001FF
